{
  "transactions": [
    {
      "hash": "0x58c5747469a82aa5807d588f5464804ce498c684feb0ce660ed51c9864ad5709",
      "transactionType": "CREATE",
      "contractName": "ImpactCards_Gen1",
      "contractAddress": "0x653d3CBa5fabc246946c0C393Ce89e862DADd3bf",
      "function": null,
      "arguments": null,
      "rpc": "https://optimism-goerli.infura.io/v3/43fca432338a495eb10c99ecb94eff5f",
      "transaction": {
        "type": "0x00",
        "from": "0x1de380594de7aba6442d879713c86ba7395abe7b",
        "gas": "0x53098d",
        "value": "0x0",
        "data": "0x60e060405260216080818152906200473160a039600690620000229082620002ff565b50604080518082019091526005815264173539b7b760d91b60208201526007906200004e9082620002ff565b506008805461ffff191660051790556611c37937e080006009556001600a5560408051608081018252600f8152600e6020820181905291810191909152600d6060820152620000a290601190600462000196565b506040805160808101825260398152603a6020820152603b91810191909152603c6060820152620000d890601290600462000196565b50348015620000e657600080fd5b506040518060600160405280602a815260200162004707602a91396200010c8162000132565b50620001183362000144565b600160048190556005805460ff19169091179055620003cb565b6002620001408282620002ff565b5050565b600380546001600160a01b038381166001600160a01b0319831681179093556040519116919082907f8be0079c531659141344cd1fd0a4f28419497f9722a3daafe3b4186f6b6457e090600090a35050565b82805482825590600052602060002090601f01602090048101928215620002315791602002820160005b838211156200020057835183826101000a81548160ff021916908360ff1602179055509260200192600101602081600001049283019260010302620001c0565b80156200022f5782816101000a81549060ff021916905560010160208160000104928301926001030262000200565b505b506200023f92915062000243565b5090565b5b808211156200023f576000815560010162000244565b634e487b7160e01b600052604160045260246000fd5b600181811c908216806200028557607f821691505b602082108103620002a657634e487b7160e01b600052602260045260246000fd5b50919050565b601f821115620002fa57600081815260208120601f850160051c81016020861015620002d55750805b601f850160051c820191505b81811015620002f657828155600101620002e1565b5050505b505050565b81516001600160401b038111156200031b576200031b6200025a565b62000333816200032c845462000270565b84620002ac565b602080601f8311600181146200036b5760008415620003525750858301515b600019600386901b1c1916600185901b178555620002f6565b600085815260208120601f198616915b828110156200039c578886015182559484019460019091019084016200037b565b5085821015620003bb5787850151600019600388901b60f8161c191681555b5050505050600190811b01905550565b61432c80620003db6000396000f3fe6080604052600436106102455760003560e01c8063715018a611610139578063bcb39621116100b6578063da3ef23f1161007a578063da3ef23f146106b8578063e985e9c5146106d8578063f242432a14610721578063f2fde38b14610741578063f4a0a52814610761578063f5298aca1461078157600080fd5b8063bcb3962114610622578063bd85b03914610638578063cb4b124714610658578063d351cfdc14610685578063d7530bb61461069857600080fd5b8063a22cb465116100fd578063a22cb46514610573578063a49bccca14610593578063b0fae03b146105c1578063b187bd26146105f3578063bc734f0f1461060d57600080fd5b8063715018a6146104e157806372c410a6146104f65780637b45a1bf146105165780637e744a76146105365780638da5cb5b1461054b57600080fd5b80632eb2c2d6116101c75780635b31cb361161018b5780635b31cb36146104315780636817c76c146104515780636b20c454146104675780636c02c75c146104875780636f7267b7146104b457600080fd5b80632eb2c2d61461039957806332cb6b0c146103b957806336566f06146103cf5780634e1273f4146103e457806355f804b31461041157600080fd5b806314b275901161020e57806314b275901461031157806316f44232146103315780631b2ef1ca146103515780631cff6268146103645780632672c9021461038457600080fd5b8062fdd58e1461024a57806301ffc9a71461027d5780630dccc9ad146102ad5780630e89341c146102cf5780630eae0f0e146102ef575b600080fd5b34801561025657600080fd5b5061026a61026536600461319f565b6107a1565b6040519081526020015b60405180910390f35b34801561028957600080fd5b5061029d6102983660046131df565b61083a565b6040519015158152602001610274565b3480156102b957600080fd5b506102c261088a565b6040516102749190613253565b3480156102db57600080fd5b506102c26102ea366004613266565b610918565b3480156102fb57600080fd5b5061030f61030a36600461327f565b61097d565b005b34801561031d57600080fd5b5061030f61032c3660046132b5565b610c1a565b34801561033d57600080fd5b5061026a61034c3660046132d9565b610d0d565b61030f61035f3660046132f4565b610d73565b34801561037057600080fd5b5061030f61037f366004613327565b610fee565b34801561039057600080fd5b506102c26112d3565b3480156103a557600080fd5b5061030f6103b43660046134ae565b6112e0565b3480156103c557600080fd5b5061026a6107e781565b3480156103db57600080fd5b5061030f61132c565b3480156103f057600080fd5b506104046103ff366004613557565b611382565b604051610274919061365c565b34801561041d57600080fd5b5061030f61042c3660046136b7565b6114ab565b34801561043d57600080fd5b5061029d61044c366004613266565b6114fe565b34801561045d57600080fd5b5061026a60095481565b34801561047357600080fd5b5061030f6104823660046136f8565b611509565b34801561049357600080fd5b506104a76104a2366004613266565b611551565b6040516102749190613797565b3480156104c057600080fd5b506104d46104cf366004613266565b6115d0565b60405161027491906137c8565b3480156104ed57600080fd5b5061030f611645565b34801561050257600080fd5b506104d4610511366004613266565b611659565b34801561052257600080fd5b5061030f6105313660046137d6565b6116d1565b34801561054257600080fd5b5061026a603c81565b34801561055757600080fd5b506003546040516001600160a01b039091168152602001610274565b34801561057f57600080fd5b5061030f61058e366004613857565b6117d2565b34801561059f57600080fd5b506008546105ae9061ffff1681565b60405161ffff9091168152602001610274565b3480156105cd57600080fd5b506105e16105dc366004613266565b6117dd565b60405160ff9091168152602001610274565b3480156105ff57600080fd5b5060055461029d9060ff1681565b34801561061957600080fd5b5061030f611811565b34801561062e57600080fd5b5061026a600a5481565b34801561064457600080fd5b5061026a610653366004613266565b6118b3565b34801561066457600080fd5b50610678610673366004613266565b6118f6565b6040516102749190613888565b61030f61069336600461391c565b611a95565b3480156106a457600080fd5b506105e16106b3366004613266565b611f32565b3480156106c457600080fd5b5061030f6106d33660046136b7565b611f42565b3480156106e457600080fd5b5061029d6106f3366004613987565b6001600160a01b03918216600090815260016020908152604080832093909416825291909152205460ff1690565b34801561072d57600080fd5b5061030f61073c3660046139ba565b611f89565b34801561074d57600080fd5b5061030f61075c3660046132d9565b611fce565b34801561076d57600080fd5b5061030f61077c366004613266565b612047565b34801561078d57600080fd5b5061030f61079c366004613a1e565b612084565b60006001600160a01b0383166108115760405162461bcd60e51b815260206004820152602a60248201527f455243313135353a2061646472657373207a65726f206973206e6f742061207660448201526930b634b21037bbb732b960b11b60648201526084015b60405180910390fd5b506000818152602081815260408083206001600160a01b03861684529091529020545b92915050565b60006001600160e01b03198216636cdb3d1360e11b148061086b57506001600160e01b031982166303a24d0760e21b145b8061083457506301ffc9a760e01b6001600160e01b0319831614610834565b6006805461089790613a51565b80601f01602080910402602001604051908101604052809291908181526020018280546108c390613a51565b80156109105780601f106108e557610100808354040283529160200191610910565b820191906000526020600020905b8154815290600101906020018083116108f357829003601f168201915b505050505081565b60606001821015801561092c5750603c8211155b6109485760405162461bcd60e51b815260040161080890613a8b565b6006610953836120c7565b600760405160200161096793929190613b27565b6040516020818303038152906040529050919050565b610985612159565b60055460ff16156109a85760405162461bcd60e51b815260040161080890613b5a565b818160ff811615806109bd57508060ff166001145b6109ff5760405162461bcd60e51b8152602060048201526013602482015272092dcecc2d8d2c840e0c2f2caca40d2dcc8caf606b1b6044820152606401610808565b6000828152600c6020526040902060ff821660028110610a2157610a21613b86565b01546001600160a01b03163314610a6b5760405162461bcd60e51b815260206004820152600e60248201526d139bdd08185d5d1a1bdc9a5e995960921b6044820152606401610808565b60018410158015610a7d5750603c8411155b610a995760405162461bcd60e51b815260040161080890613a8b565b6000848152600c6020526040812060ff851660028110610abb57610abb613b86565b01546000868152600f602052604081206001600160a01b0390921692509060ff861660028110610aed57610aed613b86565b0154905060008111610b375760405162461bcd60e51b81526020600482015260136024820152724e6f2066756e647320746f2072656c6561736560681b6044820152606401610808565b6000868152600f6020526040812060ff871660028110610b5957610b59613b86565b01556001600160a01b0382166000908152600e602052604081208054839290610b83908490613bb2565b90915550506040516001600160a01b0383169082156108fc029083906000818181858888f19350505050158015610bbe573d6000803e3d6000fd5b50604080518781526001600160a01b03841660208201529081018290527f6e3c6096795c8298a218b2cfb8bde42726ff7c9a3d27b4d3ba41ab7f74feb5fb9060600160405180910390a150505050610c166001600455565b5050565b610c226121b2565b60008161ffff1611610c6d5760405162461bcd60e51b81526020600482015260146024820152734c696d69742063616e6e6f74206265207a65726f60601b6044820152606401610808565b60648161ffff161115610cc25760405162461bcd60e51b815260206004820152601d60248201527f4c696d69742063616e6e6f74206265206d6f7265207468616e203130300000006044820152606401610808565b6008805461ffff191661ffff83169081179091556040519081527f5b6913e01c266ca9d82244c7ad7ff446888a2e08a9a6d3554386fbf22fae36e1906020015b60405180910390a150565b60006001600160a01b038216610d575760405162461bcd60e51b815260206004820152600f60248201526e496e76616c6964206164647265737360881b6044820152606401610808565b506001600160a01b03166000908152600e602052604090205490565b610d7b612159565b60055460ff1615610d9e5760405162461bcd60e51b815260040161080890613b5a565b600854819061ffff16811115610def5760405162461bcd60e51b8152602060048201526016602482015275115e18d959591cc8189d5b1ac8189d5e481b1a5b5a5d60521b6044820152606401610808565b60018310158015610e01575060388311155b610e1d5760405162461bcd60e51b815260040161080890613a8b565b610e268361220c565b610e425760405162461bcd60e51b815260040161080890613bc5565b600082118015610e6c57506000838152600b6020526040902054610e68906107e7613c0d565b8211155b610ead5760405162461bcd60e51b815260206004820152601260248201527145786365656473206d617820737570706c7960701b6044820152606401610808565b600082600954610ebd9190613c20565b905080341015610f065760405162461bcd60e51b8152602060048201526014602482015273125b9cdd59999a58da595b9d081c185e5b595b9d60621b6044820152606401610808565b6000610f13600234613c37565b6000868152600f602052604081209192508291016000828254610f369190613bb2565b90915550506000858152600f6020526040902081906001016000828254610f5d9190613bb2565b90915550506000858152600b602052604081208054869290610f80908490613bb2565b92505081905550610fa233868660405180602001604052806000815250612460565b6040805186815260208101869052338183015290517f11bf33de2604234483e348d4c7ed39423cdb90c24a9ded01acf4e647ff5335759181900360600190a1505050610c166001600455565b610ff66121b2565b600183101580156110085750603c8311155b6110245760405162461bcd60e51b815260040161080890613a8b565b61103360208201358235613bb2565b6064146110825760405162461bcd60e51b815260206004820152601c60248201527f5368617265732073686f756c642061646420757020746f2031303025000000006044820152606401610808565b600061109160208401846132d9565b6001600160a01b0316141580156110c1575060006110b560408401602085016132d9565b6001600160a01b031614155b61110d5760405162461bcd60e51b815260206004820152601d60248201527f5061796565732063616e6e6f74206265207a65726f20616464726573730000006044820152606401610808565b61111d60408301602084016132d9565b6001600160a01b031661113360208401846132d9565b6001600160a01b0316036111895760405162461bcd60e51b815260206004820152601960248201527f5061796565732063616e6e6f74206265207468652073616d65000000000000006044820152606401610808565b6000838152600c602052604090206111a3908360026130cc565b506000838152600d602052604090206111be90826002613122565b507f120ed5e733cc0dd8ace773ccaa200600da5cd3282021a6770067f439de80615e836040518060400160405280856000600281106111ff576111ff613b86565b60200201602081019061121291906132d9565b6001600160a01b0316815260209081019061123390604088019088016132d9565b6001600160a01b0316905260405161124c929190613c59565b60405180910390a17fde702a3afda93461efb92f10ed3cdd0d0df3d292af2fc9dd64628e5f31a1901d8360405180604001604052808460006002811061129457611294613b86565b60200201358152602001846001600281106112b1576112b1613b86565b602002013590526040516112c6929190613c6d565b60405180910390a1505050565b6007805461089790613a51565b6001600160a01b0385163314806112fc57506112fc85336106f3565b6113185760405162461bcd60e51b815260040161080890613c81565b6113258585858585612549565b5050505050565b6113346121b2565b6005805460ff8082161560ff1990921682179092556040519116151581527f5560278b5edfde1816c415de6402bf68981d1f9a503ffbdad45fbb77a3b4e844906020015b60405180910390a1565b606081518351146113e75760405162461bcd60e51b815260206004820152602960248201527f455243313135353a206163636f756e747320616e6420696473206c656e677468604482015268040dad2e6dac2e8c6d60bb1b6064820152608401610808565b600083516001600160401b0381111561140257611402613365565b60405190808252806020026020018201604052801561142b578160200160208202803683370190505b50905060005b84518110156114a35761147685828151811061144f5761144f613b86565b602002602001015185838151811061146957611469613b86565b60200260200101516107a1565b82828151811061148857611488613b86565b602090810291909101015261149c81613ccf565b9050611431565b509392505050565b6114b36121b2565b60066114c0828483613d2e565b507f5411e8ebf1636d9e83d5fc4900bf80cbac82e8790da2a4c94db4895e889eedf682826040516114f2929190613ded565b60405180910390a15050565b60006108348261220c565b6001600160a01b038316331480611525575061152583336106f3565b6115415760405162461bcd60e51b815260040161080890613c81565b61154c8383836126f3565b505050565b611559613150565b6001821015801561156b5750603c8211155b6115875760405162461bcd60e51b815260040161080890613a8b565b6000828152600c6020526040908190208151808301928390529160029082845b81546001600160a01b031681526001909101906020018083116115a75750505050509050919050565b6115d8613150565b600182101580156115ea5750603c8211155b6116065760405162461bcd60e51b815260040161080890613a8b565b6000828152600d6020526040908190208151808301928390529160029082845b8154815260200190600101908083116116265750505050509050919050565b61164d6121b2565b611657600061288f565b565b611661613150565b600182101580156116735750603c8211155b61168f5760405162461bcd60e51b815260040161080890613a8b565b6000828152600f602052604090819020815180830190925260028282826020028201918154815260200190600101908083116116265750505050509050919050565b6116d96121b2565b600186101580156116eb5750603c8611155b6117075760405162461bcd60e51b815260040161080890613a8b565b604051806060016040528086868080601f016020809104026020016040519081016040528093929190818152602001838380828437600092019190915250505090825250604080516020601f87018190048102820181019092528581529181019190869086908190840183828082843760009201829052509385525050506020918201849052888152601090915260409020815181906117a79082613e1c565b50602082015160018201906117bc9082613e1c565b5060408201518160020155905050505050505050565b610c163383836128e1565b601181815481106117ed57600080fd5b9060005260206000209060209182820401919006915054906101000a900460ff1681565b6118196121b2565b6004600a541061186b5760405162461bcd60e51b815260206004820152601f60248201527f416c6c20736561736f6e732068617665206265656e20616374697661746564006044820152606401610808565b600a805490600061187b83613ccf565b91905055507f6a9286bf980e56e1b373424a6139713d6ab9ef9254f1da993e5669711bfef8b8600a5460405161137891815260200190565b6000600182101580156118c75750603c8211155b6118e35760405162461bcd60e51b815260040161080890613a8b565b506000908152600b602052604090205490565b61191a60405180606001604052806060815260200160608152602001600081525090565b6001821015801561192c5750603c8211155b6119485760405162461bcd60e51b815260040161080890613a8b565b6000828152601060205260409081902081516060810190925280548290829061197090613a51565b80601f016020809104026020016040519081016040528092919081815260200182805461199c90613a51565b80156119e95780601f106119be576101008083540402835291602001916119e9565b820191906000526020600020905b8154815290600101906020018083116119cc57829003601f168201915b50505050508152602001600182018054611a0290613a51565b80601f0160208091040260200160405190810160405280929190818152602001828054611a2e90613a51565b8015611a7b5780601f10611a5057610100808354040283529160200191611a7b565b820191906000526020600020905b815481529060010190602001808311611a5e57829003601f168201915b505050505081526020016002820154815250509050919050565b611a9d612159565b60055460ff1615611ac05760405162461bcd60e51b815260040161080890613b5a565b828114611aff5760405162461bcd60e51b815260206004820152600d60248201526c125b9d985b1a59081a5b9c1d5d609a1b6044820152606401610808565b6000805b84811015611e1e576001868683818110611b1f57611b1f613b86565b9050602002013510158015611b4d57506038868683818110611b4357611b43613b86565b9050602002013511155b611b695760405162461bcd60e51b815260040161080890613a8b565b611b8a868683818110611b7e57611b7e613b86565b9050602002013561220c565b611ba65760405162461bcd60e51b815260040161080890613bc5565b6000848483818110611bba57611bba613b86565b90506020020135118015611c1e5750600b6000878784818110611bdf57611bdf613b86565b905060200201358152602001908152602001600020546107e7611c029190613c0d565b848483818110611c1457611c14613b86565b9050602002013511155b611c5b5760405162461bcd60e51b815260206004820152600e60248201526d125b9d985b1a5908185b5bdd5b9d60921b6044820152606401610808565b60085461ffff16848483818110611c7457611c74613b86565b905060200201351115611cc25760405162461bcd60e51b8152602060048201526016602482015275115e18d959591cc8189d5b1ac8189d5e481b1a5b5a5d60521b6044820152606401610808565b838382818110611cd457611cd4613b86565b90506020020135600b6000888885818110611cf157611cf1613b86565b9050602002013581526020019081526020016000206000828254611d159190613bb2565b9091555060009050848483818110611d2f57611d2f613b86565b90506020020135600954611d439190613c20565b9050611d4f8184613bb2565b92506000611d5e600283613c37565b905080600f60008a8a87818110611d7757611d77613b86565b905060200201358152602001908152602001600020600060028110611d9e57611d9e613b86565b016000828254611dae9190613bb2565b90915550819050600f60008a8a87818110611dcb57611dcb613b86565b905060200201358152602001908152602001600020600160028110611df257611df2613b86565b016000828254611e029190613bb2565b9250508190555050508080611e1690613ccf565b915050611b03565b5080341015611e665760405162461bcd60e51b8152602060048201526014602482015273125b9cdd59999a58da595b9d081c185e5b595b9d60621b6044820152606401610808565b611ee23386868080602002602001604051908101604052809392919081815260200183836020028082843760009201919091525050604080516020808a028281018201909352898252909350899250889182918501908490808284376000920182905250604080516020810190915290815292506129c1915050565b7f355f71da8f0d3b720224957780562eb1a15c004f16d64a89d66ce075ca29a6e18585858533604051611f19959493929190613f0d565b60405180910390a150611f2c6001600455565b50505050565b601281815481106117ed57600080fd5b611f4a6121b2565b6007611f57828483613d2e565b507f8731128c6185faae57b7561c5f15b0fd4ef267565ef90a6980c4e4b81a25e42082826040516114f2929190613ded565b6001600160a01b038516331480611fa55750611fa585336106f3565b611fc15760405162461bcd60e51b815260040161080890613c81565b6113258585858585612b1b565b611fd66121b2565b6001600160a01b03811661203b5760405162461bcd60e51b815260206004820152602660248201527f4f776e61626c653a206e6577206f776e657220697320746865207a65726f206160448201526564647265737360d01b6064820152608401610808565b6120448161288f565b50565b61204f6121b2565b60098190556040518181527f680d48f3ac056f34ba048f33f9724cf2b4023626c5baa2b6bc554ec47fbfa10190602001610d02565b6001600160a01b0383163314806120a057506120a083336106f3565b6120bc5760405162461bcd60e51b815260040161080890613c81565b61154c838383612c53565b606060006120d483612d6b565b60010190506000816001600160401b038111156120f3576120f3613365565b6040519080825280601f01601f19166020018201604052801561211d576020820181803683370190505b5090508181016020015b600019016f181899199a1a9b1b9c1cb0b131b232b360811b600a86061a8153600a850494508461212757509392505050565b6002600454036121ab5760405162461bcd60e51b815260206004820152601f60248201527f5265656e7472616e637947756172643a207265656e7472616e742063616c6c006044820152606401610808565b6002600455565b6003546001600160a01b031633146116575760405162461bcd60e51b815260206004820181905260248201527f4f776e61626c653a2063616c6c6572206973206e6f7420746865206f776e65726044820152606401610808565b6000600a5460011480156122535750601160008154811061222f5761222f613b86565b60009182526020918290209181049091015460ff601f9092166101000a9004168211155b1561226057506001919050565b600a5460021480156122e65750601160018154811061228157612281613b86565b90600052602060002090602091828204019190069054906101000a900460ff1660116000815481106122b5576122b5613b86565b90600052602060002090602091828204019190069054906101000a900460ff166122df9190613f4f565b60ff168211155b156122f357506001919050565b600a5460031480156123b75750601160028154811061231457612314613b86565b90600052602060002090602091828204019190069054906101000a900460ff16601160018154811061234857612348613b86565b90600052602060002090602091828204019190069054906101000a900460ff16601160008154811061237c5761237c613b86565b90600052602060002090602091828204019190069054906101000a900460ff166123a69190613f4f565b6123b09190613f4f565b60ff168211155b156123c457506001919050565b600a5460041480156123e357506012546123df90603c613c0d565b8211155b156123f057506001919050565b60005b60125460ff821610156124575760128160ff168154811061241657612416613b86565b60009182526020918290209181049091015460ff601f9092166101000a90041683036124455750600192915050565b8061244f81613f68565b9150506123f3565b50506000919050565b6001600160a01b0384166124865760405162461bcd60e51b815260040161080890613f87565b33600061249285612e43565b9050600061249f85612e43565b90506124b083600089858589612e8e565b6000868152602081815260408083206001600160a01b038b168452909152812080548792906124e0908490613bb2565b909155505060408051878152602081018790526001600160a01b03808a1692600092918716917fc3d58168c5ae7397731d063d5bbf3d657854427343f4c083240f7aacaa2d0f62910160405180910390a461254083600089898989612eb6565b50505050505050565b815183511461256a5760405162461bcd60e51b815260040161080890613fc8565b6001600160a01b0384166125905760405162461bcd60e51b815260040161080890614010565b3361259f818787878787612e8e565b60005b84518110156126855760008582815181106125bf576125bf613b86565b6020026020010151905060008583815181106125dd576125dd613b86565b602090810291909101810151600084815280835260408082206001600160a01b038e16835290935291909120549091508181101561262d5760405162461bcd60e51b815260040161080890614055565b6000838152602081815260408083206001600160a01b038e8116855292528083208585039055908b1682528120805484929061266a908490613bb2565b925050819055505050508061267e90613ccf565b90506125a2565b50846001600160a01b0316866001600160a01b0316826001600160a01b03167f4a39dc06d4c0dbc64b70af90fd698a233a518aa5d07e595d983b8c0526c8f7fb87876040516126d592919061409f565b60405180910390a46126eb818787878787613011565b505050505050565b6001600160a01b0383166127195760405162461bcd60e51b8152600401610808906140cd565b805182511461273a5760405162461bcd60e51b815260040161080890613fc8565b600033905061275d81856000868660405180602001604052806000815250612e8e565b60005b835181101561282257600084828151811061277d5761277d613b86565b60200260200101519050600084838151811061279b5761279b613b86565b602090810291909101810151600084815280835260408082206001600160a01b038c1683529093529190912054909150818110156127eb5760405162461bcd60e51b815260040161080890614110565b6000928352602083815260408085206001600160a01b038b168652909152909220910390558061281a81613ccf565b915050612760565b5060006001600160a01b0316846001600160a01b0316826001600160a01b03167f4a39dc06d4c0dbc64b70af90fd698a233a518aa5d07e595d983b8c0526c8f7fb868660405161287392919061409f565b60405180910390a4604080516020810190915260009052611f2c565b600380546001600160a01b038381166001600160a01b0319831681179093556040519116919082907f8be0079c531659141344cd1fd0a4f28419497f9722a3daafe3b4186f6b6457e090600090a35050565b816001600160a01b0316836001600160a01b0316036129545760405162461bcd60e51b815260206004820152602960248201527f455243313135353a2073657474696e6720617070726f76616c20737461747573604482015268103337b91039b2b63360b91b6064820152608401610808565b6001600160a01b03838116600081815260016020908152604080832094871680845294825291829020805460ff191686151590811790915591519182527f17307eab39ab6107e8899845ad3d59bd9653f200f220920489ca2b5937696c31910160405180910390a3505050565b6001600160a01b0384166129e75760405162461bcd60e51b815260040161080890613f87565b8151835114612a085760405162461bcd60e51b815260040161080890613fc8565b33612a1881600087878787612e8e565b60005b8451811015612ab357838181518110612a3657612a36613b86565b6020026020010151600080878481518110612a5357612a53613b86565b602002602001015181526020019081526020016000206000886001600160a01b03166001600160a01b031681526020019081526020016000206000828254612a9b9190613bb2565b90915550819050612aab81613ccf565b915050612a1b565b50846001600160a01b031660006001600160a01b0316826001600160a01b03167f4a39dc06d4c0dbc64b70af90fd698a233a518aa5d07e595d983b8c0526c8f7fb8787604051612b0492919061409f565b60405180910390a461132581600087878787613011565b6001600160a01b038416612b415760405162461bcd60e51b815260040161080890614010565b336000612b4d85612e43565b90506000612b5a85612e43565b9050612b6a838989858589612e8e565b6000868152602081815260408083206001600160a01b038c16845290915290205485811015612bab5760405162461bcd60e51b815260040161080890614055565b6000878152602081815260408083206001600160a01b038d8116855292528083208985039055908a16825281208054889290612be8908490613bb2565b909155505060408051888152602081018890526001600160a01b03808b16928c821692918816917fc3d58168c5ae7397731d063d5bbf3d657854427343f4c083240f7aacaa2d0f62910160405180910390a4612c48848a8a8a8a8a612eb6565b505050505050505050565b6001600160a01b038316612c795760405162461bcd60e51b8152600401610808906140cd565b336000612c8584612e43565b90506000612c9284612e43565b9050612cb283876000858560405180602001604052806000815250612e8e565b6000858152602081815260408083206001600160a01b038a16845290915290205484811015612cf35760405162461bcd60e51b815260040161080890614110565b6000868152602081815260408083206001600160a01b038b81168086529184528285208a8703905582518b81529384018a90529092908816917fc3d58168c5ae7397731d063d5bbf3d657854427343f4c083240f7aacaa2d0f62910160405180910390a4604080516020810190915260009052612540565b60008072184f03e93ff9f4daa797ed6e38ed64bf6a1f0160401b8310612daa5772184f03e93ff9f4daa797ed6e38ed64bf6a1f0160401b830492506040015b6d04ee2d6d415b85acef81000000008310612dd6576d04ee2d6d415b85acef8100000000830492506020015b662386f26fc100008310612df457662386f26fc10000830492506010015b6305f5e1008310612e0c576305f5e100830492506008015b6127108310612e2057612710830492506004015b60648310612e32576064830492506002015b600a83106108345760010192915050565b60408051600180825281830190925260609160009190602080830190803683370190505090508281600081518110612e7d57612e7d613b86565b602090810291909101015292915050565b60055460ff1615612eb15760405162461bcd60e51b815260040161080890613b5a565b6126eb565b6001600160a01b0384163b156126eb5760405163f23a6e6160e01b81526001600160a01b0385169063f23a6e6190612efa9089908990889088908890600401614154565b6020604051808303816000875af1925050508015612f35575060408051601f3d908101601f19168201909252612f329181019061418e565b60015b612fe157612f416141ab565b806308c379a003612f7a5750612f556141c7565b80612f605750612f7c565b8060405162461bcd60e51b81526004016108089190613253565b505b60405162461bcd60e51b815260206004820152603460248201527f455243313135353a207472616e7366657220746f206e6f6e2d455243313135356044820152732932b1b2b4bb32b91034b6b83632b6b2b73a32b960611b6064820152608401610808565b6001600160e01b0319811663f23a6e6160e01b146125405760405162461bcd60e51b815260040161080890614250565b6001600160a01b0384163b156126eb5760405163bc197c8160e01b81526001600160a01b0385169063bc197c81906130559089908990889088908890600401614298565b6020604051808303816000875af1925050508015613090575060408051601f3d908101601f1916820190925261308d9181019061418e565b60015b61309c57612f416141ab565b6001600160e01b0319811663bc197c8160e01b146125405760405162461bcd60e51b815260040161080890614250565b8260028101928215613112579160200282015b828111156131125781546001600160a01b0319166001600160a01b038435161782556020909201916001909101906130df565b5061311e92915061316e565b5090565b8260028101928215613112579160200282015b82811115613112578235825591602001919060010190613135565b60405180604001604052806002906020820280368337509192915050565b5b8082111561311e576000815560010161316f565b80356001600160a01b038116811461319a57600080fd5b919050565b600080604083850312156131b257600080fd5b6131bb83613183565b946020939093013593505050565b6001600160e01b03198116811461204457600080fd5b6000602082840312156131f157600080fd5b81356131fc816131c9565b9392505050565b60005b8381101561321e578181015183820152602001613206565b50506000910152565b6000815180845261323f816020860160208601613203565b601f01601f19169290920160200192915050565b6020815260006131fc6020830184613227565b60006020828403121561327857600080fd5b5035919050565b6000806040838503121561329257600080fd5b82359150602083013560ff811681146132aa57600080fd5b809150509250929050565b6000602082840312156132c757600080fd5b813561ffff811681146131fc57600080fd5b6000602082840312156132eb57600080fd5b6131fc82613183565b6000806040838503121561330757600080fd5b50508035926020909101359150565b806040810183101561083457600080fd5b600080600060a0848603121561333c57600080fd5b8335925061334d8560208601613316565b915061335c8560608601613316565b90509250925092565b634e487b7160e01b600052604160045260246000fd5b601f8201601f191681016001600160401b03811182821017156133a0576133a0613365565b6040525050565b60006001600160401b038211156133c0576133c0613365565b5060051b60200190565b600082601f8301126133db57600080fd5b813560206133e8826133a7565b6040516133f5828261337b565b83815260059390931b850182019282810191508684111561341557600080fd5b8286015b848110156134305780358352918301918301613419565b509695505050505050565b600082601f83011261344c57600080fd5b81356001600160401b0381111561346557613465613365565b60405161347c601f8301601f19166020018261337b565b81815284602083860101111561349157600080fd5b816020850160208301376000918101602001919091529392505050565b600080600080600060a086880312156134c657600080fd5b6134cf86613183565b94506134dd60208701613183565b935060408601356001600160401b03808211156134f957600080fd5b61350589838a016133ca565b9450606088013591508082111561351b57600080fd5b61352789838a016133ca565b9350608088013591508082111561353d57600080fd5b5061354a8882890161343b565b9150509295509295909350565b6000806040838503121561356a57600080fd5b82356001600160401b038082111561358157600080fd5b818501915085601f83011261359557600080fd5b813560206135a2826133a7565b6040516135af828261337b565b83815260059390931b85018201928281019150898411156135cf57600080fd5b948201945b838610156135f4576135e586613183565b825294820194908201906135d4565b9650508601359250508082111561360a57600080fd5b50613617858286016133ca565b9150509250929050565b600081518084526020808501945080840160005b8381101561365157815187529582019590820190600101613635565b509495945050505050565b6020815260006131fc6020830184613621565b60008083601f84011261368157600080fd5b5081356001600160401b0381111561369857600080fd5b6020830191508360208285010111156136b057600080fd5b9250929050565b600080602083850312156136ca57600080fd5b82356001600160401b038111156136e057600080fd5b6136ec8582860161366f565b90969095509350505050565b60008060006060848603121561370d57600080fd5b61371684613183565b925060208401356001600160401b038082111561373257600080fd5b61373e878388016133ca565b9350604086013591508082111561375457600080fd5b50613761868287016133ca565b9150509250925092565b8060005b6002811015611f2c5781516001600160a01b031684526020938401939091019060010161376f565b60408101610834828461376b565b8060005b6002811015611f2c5781518452602093840193909101906001016137a9565b6040810161083482846137a5565b600080600080600080608087890312156137ef57600080fd5b8635955060208701356001600160401b038082111561380d57600080fd5b6138198a838b0161366f565b9097509550604089013591508082111561383257600080fd5b5061383f89828a0161366f565b979a9699509497949695606090950135949350505050565b6000806040838503121561386a57600080fd5b61387383613183565b9150602083013580151581146132aa57600080fd5b6020815260008251606060208401526138a46080840182613227565b90506020840151601f198483030160408501526138c18282613227565b915050604084015160608401528091505092915050565b60008083601f8401126138ea57600080fd5b5081356001600160401b0381111561390157600080fd5b6020830191508360208260051b85010111156136b057600080fd5b6000806000806040858703121561393257600080fd5b84356001600160401b038082111561394957600080fd5b613955888389016138d8565b9096509450602087013591508082111561396e57600080fd5b5061397b878288016138d8565b95989497509550505050565b6000806040838503121561399a57600080fd5b6139a383613183565b91506139b160208401613183565b90509250929050565b600080600080600060a086880312156139d257600080fd5b6139db86613183565b94506139e960208701613183565b9350604086013592506060860135915060808601356001600160401b03811115613a1257600080fd5b61354a8882890161343b565b600080600060608486031215613a3357600080fd5b613a3c84613183565b95602085013595506040909401359392505050565b600181811c90821680613a6557607f821691505b602082108103613a8557634e487b7160e01b600052602260045260246000fd5b50919050565b6020808252600f908201526e125b9d985b1a59081d1bdad95b9259608a1b604082015260600190565b60008154613ac181613a51565b60018281168015613ad95760018114613aee57613b1d565b60ff1984168752821515830287019450613b1d565b8560005260208060002060005b85811015613b145781548a820152908401908201613afb565b50505082870194505b5050505092915050565b6000613b338286613ab4565b8451613b43818360208901613203565b613b4f81830186613ab4565b979650505050505050565b60208082526012908201527110dbdb9d1c9858dd081a5cc81c185d5cd95960721b604082015260600190565b634e487b7160e01b600052603260045260246000fd5b634e487b7160e01b600052601160045260246000fd5b8082018082111561083457610834613b9c565b60208082526028908201527f546f6b656e206e6f74206d696e7461626c6520696e207468652063757272656e6040820152673a1039b2b0b9b7b760c11b606082015260800190565b8181038181111561083457610834613b9c565b808202811582820484141761083457610834613b9c565b600082613c5457634e487b7160e01b600052601260045260246000fd5b500490565b828152606081016131fc602083018461376b565b828152606081016131fc60208301846137a5565b6020808252602e908201527f455243313135353a2063616c6c6572206973206e6f7420746f6b656e206f776e60408201526d195c881bdc88185c1c1c9bdd995960921b606082015260800190565b600060018201613ce157613ce1613b9c565b5060010190565b601f82111561154c57600081815260208120601f850160051c81016020861015613d0f5750805b601f850160051c820191505b818110156126eb57828155600101613d1b565b6001600160401b03831115613d4557613d45613365565b613d5983613d538354613a51565b83613ce8565b6000601f841160018114613d8d5760008515613d755750838201355b600019600387901b1c1916600186901b178355611325565b600083815260209020601f19861690835b82811015613dbe5786850135825560209485019460019092019101613d9e565b5086821015613ddb5760001960f88860031b161c19848701351681555b505060018560011b0183555050505050565b60208152816020820152818360408301376000818301604090810191909152601f909201601f19160101919050565b81516001600160401b03811115613e3557613e35613365565b613e4981613e438454613a51565b84613ce8565b602080601f831160018114613e7e5760008415613e665750858301515b600019600386901b1c1916600185901b1785556126eb565b600085815260208120601f198616915b82811015613ead57888601518255948401946001909101908401613e8e565b5085821015613ecb5787850151600019600388901b60f8161c191681555b5050505050600190811b01905550565b81835260006001600160fb1b03831115613ef457600080fd5b8260051b80836020870137939093016020019392505050565b606081526000613f21606083018789613edb565b8281036020840152613f34818688613edb565b91505060018060a01b03831660408301529695505050505050565b60ff818116838216019081111561083457610834613b9c565b600060ff821660ff8103613f7e57613f7e613b9c565b60010192915050565b60208082526021908201527f455243313135353a206d696e7420746f20746865207a65726f206164647265736040820152607360f81b606082015260800190565b60208082526028908201527f455243313135353a2069647320616e6420616d6f756e7473206c656e677468206040820152670dad2e6dac2e8c6d60c31b606082015260800190565b60208082526025908201527f455243313135353a207472616e7366657220746f20746865207a65726f206164604082015264647265737360d81b606082015260800190565b6020808252602a908201527f455243313135353a20696e73756666696369656e742062616c616e636520666f60408201526939103a3930b739b332b960b11b606082015260800190565b6040815260006140b26040830185613621565b82810360208401526140c48185613621565b95945050505050565b60208082526023908201527f455243313135353a206275726e2066726f6d20746865207a65726f206164647260408201526265737360e81b606082015260800190565b60208082526024908201527f455243313135353a206275726e20616d6f756e7420657863656564732062616c604082015263616e636560e01b606082015260800190565b6001600160a01b03868116825285166020820152604081018490526060810183905260a060808201819052600090613b4f90830184613227565b6000602082840312156141a057600080fd5b81516131fc816131c9565b600060033d11156141c45760046000803e5060005160e01c5b90565b600060443d10156141d55790565b6040516003193d81016004833e81513d6001600160401b03816024840111818411171561420457505050505090565b828501915081518181111561421c5750505050505090565b843d87010160208285010111156142365750505050505090565b6142456020828601018761337b565b509095945050505050565b60208082526028908201527f455243313135353a204552433131353552656365697665722072656a656374656040820152676420746f6b656e7360c01b606082015260800190565b6001600160a01b0386811682528516602082015260a0604082018190526000906142c490830186613621565b82810360608401526142d68186613621565b905082810360808401526142ea8185613227565b9897505050505050505056fea2646970667358221220b047316b14bd56a39ffa3bfe9f873e7cab8f3cf64b268add1ce0c0aa3b747e8e64736f6c6343000813003368747470733a2f2f696d7061637463617264732e696f2f6170692f63617264732f7b69647d2e6a736f6e68747470733a2f2f696d7061637463617264732e696f2f6170692f63617264732f",
        "nonce": "0x64"
      },
      "additionalContracts": [],
      "isFixedGasLimit": false
    },
    {
      "hash": "0x9450548ea69c25b9d0a556d4e9fa62405b65eaaec316501bcb96f46510b9a43a",
      "transactionType": "CALL",
      "contractName": "ImpactCards_Gen1",
      "contractAddress": "0x653d3CBa5fabc246946c0C393Ce89e862DADd3bf",
      "function": "setPayees(uint256,address[2],uint256[2])",
      "arguments": [
        "1",
        "[0x7c3bA47e39741B37F6093b1c2E534f1E84C0B36b, 0x59992E3626D6d5471D676f2de5A6e6dcF0e06De7]",
        "[50, 50]"
      ],
      "rpc": "https://optimism-goerli.infura.io/v3/43fca432338a495eb10c99ecb94eff5f",
      "transaction": {
        "type": "0x00",
        "from": "0x1de380594de7aba6442d879713c86ba7395abe7b",
        "to": "0x653d3cba5fabc246946c0c393ce89e862dadd3bf",
        "gas": "0x2aaf3",
        "value": "0x0",
        "data": "0x1cff626800000000000000000000000000000000000000000000000000000000000000010000000000000000000000007c3ba47e39741b37f6093b1c2e534f1e84c0b36b00000000000000000000000059992e3626d6d5471d676f2de5a6e6dcf0e06de700000000000000000000000000000000000000000000000000000000000000320000000000000000000000000000000000000000000000000000000000000032",
        "nonce": "0x65"
      },
      "additionalContracts": [],
      "isFixedGasLimit": false
    },
    {
      "hash": "0xac7d9f7ee4be6298e6e1f9b06c155a7d3c2bf6fcf053a92c1573cf24f954df40",
      "transactionType": "CALL",
      "contractName": "ImpactCards_Gen1",
      "contractAddress": "0x653d3CBa5fabc246946c0C393Ce89e862DADd3bf",
      "function": "setPayees(uint256,address[2],uint256[2])",
      "arguments": [
        "2",
        "[0x7c3bA47e39741B37F6093b1c2E534f1E84C0B36b, 0x59992E3626D6d5471D676f2de5A6e6dcF0e06De7]",
        "[50, 50]"
      ],
      "rpc": "https://optimism-goerli.infura.io/v3/43fca432338a495eb10c99ecb94eff5f",
      "transaction": {
        "type": "0x00",
        "from": "0x1de380594de7aba6442d879713c86ba7395abe7b",
        "to": "0x653d3cba5fabc246946c0c393ce89e862dadd3bf",
        "gas": "0x2aaf3",
        "value": "0x0",
        "data": "0x1cff626800000000000000000000000000000000000000000000000000000000000000020000000000000000000000007c3ba47e39741b37f6093b1c2e534f1e84c0b36b00000000000000000000000059992e3626d6d5471d676f2de5a6e6dcf0e06de700000000000000000000000000000000000000000000000000000000000000320000000000000000000000000000000000000000000000000000000000000032",
        "nonce": "0x66"
      },
      "additionalContracts": [],
      "isFixedGasLimit": false
    },
    {
      "hash": "0x507fa13ca0b86b066911c4be45ad5733fe5142f38505b0ce56b8652bed8abed5",
      "transactionType": "CALL",
      "contractName": "ImpactCards_Gen1",
      "contractAddress": "0x653d3CBa5fabc246946c0C393Ce89e862DADd3bf",
      "function": "setPayees(uint256,address[2],uint256[2])",
      "arguments": [
        "3",
        "[0x7c3bA47e39741B37F6093b1c2E534f1E84C0B36b, 0x59992E3626D6d5471D676f2de5A6e6dcF0e06De7]",
        "[50, 50]"
      ],
      "rpc": "https://optimism-goerli.infura.io/v3/43fca432338a495eb10c99ecb94eff5f",
      "transaction": {
        "type": "0x00",
        "from": "0x1de380594de7aba6442d879713c86ba7395abe7b",
        "to": "0x653d3cba5fabc246946c0c393ce89e862dadd3bf",
        "gas": "0x2aaf3",
        "value": "0x0",
        "data": "0x1cff626800000000000000000000000000000000000000000000000000000000000000030000000000000000000000007c3ba47e39741b37f6093b1c2e534f1e84c0b36b00000000000000000000000059992e3626d6d5471d676f2de5a6e6dcf0e06de700000000000000000000000000000000000000000000000000000000000000320000000000000000000000000000000000000000000000000000000000000032",
        "nonce": "0x67"
      },
      "additionalContracts": [],
      "isFixedGasLimit": false
    },
    {
      "hash": "0x31948537b97a7e2aa71e3505d2122cd2d6403f61fe1f586d023633776afe024e",
      "transactionType": "CALL",
      "contractName": "ImpactCards_Gen1",
      "contractAddress": "0x653d3CBa5fabc246946c0C393Ce89e862DADd3bf",
      "function": "setPayees(uint256,address[2],uint256[2])",
      "arguments": [
        "4",
        "[0x7c3bA47e39741B37F6093b1c2E534f1E84C0B36b, 0x59992E3626D6d5471D676f2de5A6e6dcF0e06De7]",
        "[50, 50]"
      ],
      "rpc": "https://optimism-goerli.infura.io/v3/43fca432338a495eb10c99ecb94eff5f",
      "transaction": {
        "type": "0x00",
        "from": "0x1de380594de7aba6442d879713c86ba7395abe7b",
        "to": "0x653d3cba5fabc246946c0c393ce89e862dadd3bf",
        "gas": "0x2aaf3",
        "value": "0x0",
        "data": "0x1cff626800000000000000000000000000000000000000000000000000000000000000040000000000000000000000007c3ba47e39741b37f6093b1c2e534f1e84c0b36b00000000000000000000000059992e3626d6d5471d676f2de5a6e6dcf0e06de700000000000000000000000000000000000000000000000000000000000000320000000000000000000000000000000000000000000000000000000000000032",
        "nonce": "0x68"
      },
      "additionalContracts": [],
      "isFixedGasLimit": false
    },
    {
      "hash": "0xd893d65cc87b7775e22b0abba9f0ad8abfd9119d17e8a3c3265224e7c1400014",
      "transactionType": "CALL",
      "contractName": "ImpactCards_Gen1",
      "contractAddress": "0x653d3CBa5fabc246946c0C393Ce89e862DADd3bf",
      "function": "setPayees(uint256,address[2],uint256[2])",
      "arguments": [
        "5",
        "[0x7c3bA47e39741B37F6093b1c2E534f1E84C0B36b, 0x59992E3626D6d5471D676f2de5A6e6dcF0e06De7]",
        "[50, 50]"
      ],
      "rpc": "https://optimism-goerli.infura.io/v3/43fca432338a495eb10c99ecb94eff5f",
      "transaction": {
        "type": "0x00",
        "from": "0x1de380594de7aba6442d879713c86ba7395abe7b",
        "to": "0x653d3cba5fabc246946c0c393ce89e862dadd3bf",
        "gas": "0x2aaf3",
        "value": "0x0",
        "data": "0x1cff626800000000000000000000000000000000000000000000000000000000000000050000000000000000000000007c3ba47e39741b37f6093b1c2e534f1e84c0b36b00000000000000000000000059992e3626d6d5471d676f2de5a6e6dcf0e06de700000000000000000000000000000000000000000000000000000000000000320000000000000000000000000000000000000000000000000000000000000032",
        "nonce": "0x69"
      },
      "additionalContracts": [],
      "isFixedGasLimit": false
    },
    {
      "hash": "0x068e88f57f42c86ef48cfcd51b2e1c4fac92504b22a26ffab53801f30f516fa0",
      "transactionType": "CALL",
      "contractName": "ImpactCards_Gen1",
      "contractAddress": "0x653d3CBa5fabc246946c0C393Ce89e862DADd3bf",
      "function": "setPayees(uint256,address[2],uint256[2])",
      "arguments": [
        "6",
        "[0x7c3bA47e39741B37F6093b1c2E534f1E84C0B36b, 0x59992E3626D6d5471D676f2de5A6e6dcF0e06De7]",
        "[50, 50]"
      ],
      "rpc": "https://optimism-goerli.infura.io/v3/43fca432338a495eb10c99ecb94eff5f",
      "transaction": {
        "type": "0x00",
        "from": "0x1de380594de7aba6442d879713c86ba7395abe7b",
        "to": "0x653d3cba5fabc246946c0c393ce89e862dadd3bf",
        "gas": "0x2aaf3",
        "value": "0x0",
        "data": "0x1cff626800000000000000000000000000000000000000000000000000000000000000060000000000000000000000007c3ba47e39741b37f6093b1c2e534f1e84c0b36b00000000000000000000000059992e3626d6d5471d676f2de5a6e6dcf0e06de700000000000000000000000000000000000000000000000000000000000000320000000000000000000000000000000000000000000000000000000000000032",
        "nonce": "0x6a"
      },
      "additionalContracts": [],
      "isFixedGasLimit": false
    },
    {
      "hash": "0xfc6404ba342673560f91ba07ab68f4428181c2b57e886f4f989cf8419e92cfa4",
      "transactionType": "CALL",
      "contractName": "ImpactCards_Gen1",
      "contractAddress": "0x653d3CBa5fabc246946c0C393Ce89e862DADd3bf",
      "function": "setPayees(uint256,address[2],uint256[2])",
      "arguments": [
        "7",
        "[0x7c3bA47e39741B37F6093b1c2E534f1E84C0B36b, 0x59992E3626D6d5471D676f2de5A6e6dcF0e06De7]",
        "[50, 50]"
      ],
      "rpc": "https://optimism-goerli.infura.io/v3/43fca432338a495eb10c99ecb94eff5f",
      "transaction": {
        "type": "0x00",
        "from": "0x1de380594de7aba6442d879713c86ba7395abe7b",
        "to": "0x653d3cba5fabc246946c0c393ce89e862dadd3bf",
        "gas": "0x2aaf3",
        "value": "0x0",
        "data": "0x1cff626800000000000000000000000000000000000000000000000000000000000000070000000000000000000000007c3ba47e39741b37f6093b1c2e534f1e84c0b36b00000000000000000000000059992e3626d6d5471d676f2de5a6e6dcf0e06de700000000000000000000000000000000000000000000000000000000000000320000000000000000000000000000000000000000000000000000000000000032",
        "nonce": "0x6b"
      },
      "additionalContracts": [],
      "isFixedGasLimit": false
    },
    {
      "hash": "0x661e54c98e791e74025ae623e3f48c49bb6a1091caa14e7b0608d6390e22b3c2",
      "transactionType": "CALL",
      "contractName": "ImpactCards_Gen1",
      "contractAddress": "0x653d3CBa5fabc246946c0C393Ce89e862DADd3bf",
      "function": "setPayees(uint256,address[2],uint256[2])",
      "arguments": [
        "8",
        "[0x7c3bA47e39741B37F6093b1c2E534f1E84C0B36b, 0x59992E3626D6d5471D676f2de5A6e6dcF0e06De7]",
        "[50, 50]"
      ],
      "rpc": "https://optimism-goerli.infura.io/v3/43fca432338a495eb10c99ecb94eff5f",
      "transaction": {
        "type": "0x00",
        "from": "0x1de380594de7aba6442d879713c86ba7395abe7b",
        "to": "0x653d3cba5fabc246946c0c393ce89e862dadd3bf",
        "gas": "0x2aaf3",
        "value": "0x0",
        "data": "0x1cff626800000000000000000000000000000000000000000000000000000000000000080000000000000000000000007c3ba47e39741b37f6093b1c2e534f1e84c0b36b00000000000000000000000059992e3626d6d5471d676f2de5a6e6dcf0e06de700000000000000000000000000000000000000000000000000000000000000320000000000000000000000000000000000000000000000000000000000000032",
        "nonce": "0x6c"
      },
      "additionalContracts": [],
      "isFixedGasLimit": false
    },
    {
      "hash": "0x3b6b1573adb47659e4cca17030f043b8a81e32d6d06fd45cc0ac61caae9fbd68",
      "transactionType": "CALL",
      "contractName": "ImpactCards_Gen1",
      "contractAddress": "0x653d3CBa5fabc246946c0C393Ce89e862DADd3bf",
      "function": "setPayees(uint256,address[2],uint256[2])",
      "arguments": [
        "9",
        "[0x7c3bA47e39741B37F6093b1c2E534f1E84C0B36b, 0x59992E3626D6d5471D676f2de5A6e6dcF0e06De7]",
        "[50, 50]"
      ],
      "rpc": "https://optimism-goerli.infura.io/v3/43fca432338a495eb10c99ecb94eff5f",
      "transaction": {
        "type": "0x00",
        "from": "0x1de380594de7aba6442d879713c86ba7395abe7b",
        "to": "0x653d3cba5fabc246946c0c393ce89e862dadd3bf",
        "gas": "0x2aaf3",
        "value": "0x0",
        "data": "0x1cff626800000000000000000000000000000000000000000000000000000000000000090000000000000000000000007c3ba47e39741b37f6093b1c2e534f1e84c0b36b00000000000000000000000059992e3626d6d5471d676f2de5a6e6dcf0e06de700000000000000000000000000000000000000000000000000000000000000320000000000000000000000000000000000000000000000000000000000000032",
        "nonce": "0x6d"
      },
      "additionalContracts": [],
      "isFixedGasLimit": false
    },
    {
      "hash": "0xec2e432487f58c3dfb12cc3401141c3afd774dab3f65c0bace986fa41d51e9d3",
      "transactionType": "CALL",
      "contractName": "ImpactCards_Gen1",
      "contractAddress": "0x653d3CBa5fabc246946c0C393Ce89e862DADd3bf",
      "function": "setPayees(uint256,address[2],uint256[2])",
      "arguments": [
        "10",
        "[0x7c3bA47e39741B37F6093b1c2E534f1E84C0B36b, 0x59992E3626D6d5471D676f2de5A6e6dcF0e06De7]",
        "[50, 50]"
      ],
      "rpc": "https://optimism-goerli.infura.io/v3/43fca432338a495eb10c99ecb94eff5f",
      "transaction": {
        "type": "0x00",
        "from": "0x1de380594de7aba6442d879713c86ba7395abe7b",
        "to": "0x653d3cba5fabc246946c0c393ce89e862dadd3bf",
        "gas": "0x2aaf3",
        "value": "0x0",
        "data": "0x1cff6268000000000000000000000000000000000000000000000000000000000000000a0000000000000000000000007c3ba47e39741b37f6093b1c2e534f1e84c0b36b00000000000000000000000059992e3626d6d5471d676f2de5a6e6dcf0e06de700000000000000000000000000000000000000000000000000000000000000320000000000000000000000000000000000000000000000000000000000000032",
        "nonce": "0x6e"
      },
      "additionalContracts": [],
      "isFixedGasLimit": false
    },
    {
      "hash": "0xef35f4429d104711bc9810755bbf507d11d923392aad3ce55ec068fdca2e3723",
      "transactionType": "CALL",
      "contractName": "ImpactCards_Gen1",
      "contractAddress": "0x653d3CBa5fabc246946c0C393Ce89e862DADd3bf",
      "function": "setPayees(uint256,address[2],uint256[2])",
      "arguments": [
        "11",
        "[0x7c3bA47e39741B37F6093b1c2E534f1E84C0B36b, 0x59992E3626D6d5471D676f2de5A6e6dcF0e06De7]",
        "[50, 50]"
      ],
      "rpc": "https://optimism-goerli.infura.io/v3/43fca432338a495eb10c99ecb94eff5f",
      "transaction": {
        "type": "0x00",
        "from": "0x1de380594de7aba6442d879713c86ba7395abe7b",
        "to": "0x653d3cba5fabc246946c0c393ce89e862dadd3bf",
        "gas": "0x2aaf3",
        "value": "0x0",
        "data": "0x1cff6268000000000000000000000000000000000000000000000000000000000000000b0000000000000000000000007c3ba47e39741b37f6093b1c2e534f1e84c0b36b00000000000000000000000059992e3626d6d5471d676f2de5a6e6dcf0e06de700000000000000000000000000000000000000000000000000000000000000320000000000000000000000000000000000000000000000000000000000000032",
        "nonce": "0x6f"
      },
      "additionalContracts": [],
      "isFixedGasLimit": false
    },
    {
      "hash": "0x745f7f6dc7404b5bf56eb7b5e54a954aed1e7fbd8d49beb597f98843c122f8dd",
      "transactionType": "CALL",
      "contractName": "ImpactCards_Gen1",
      "contractAddress": "0x653d3CBa5fabc246946c0C393Ce89e862DADd3bf",
      "function": "setPayees(uint256,address[2],uint256[2])",
      "arguments": [
        "12",
        "[0x7c3bA47e39741B37F6093b1c2E534f1E84C0B36b, 0x59992E3626D6d5471D676f2de5A6e6dcF0e06De7]",
        "[50, 50]"
      ],
      "rpc": "https://optimism-goerli.infura.io/v3/43fca432338a495eb10c99ecb94eff5f",
      "transaction": {
        "type": "0x00",
        "from": "0x1de380594de7aba6442d879713c86ba7395abe7b",
        "to": "0x653d3cba5fabc246946c0c393ce89e862dadd3bf",
        "gas": "0x2aaf3",
        "value": "0x0",
        "data": "0x1cff6268000000000000000000000000000000000000000000000000000000000000000c0000000000000000000000007c3ba47e39741b37f6093b1c2e534f1e84c0b36b00000000000000000000000059992e3626d6d5471d676f2de5a6e6dcf0e06de700000000000000000000000000000000000000000000000000000000000000320000000000000000000000000000000000000000000000000000000000000032",
        "nonce": "0x70"
      },
      "additionalContracts": [],
      "isFixedGasLimit": false
    },
    {
      "hash": "0x19354fe1b2200445cf885e83d4399d766274405c4443a208a16cebedc4556a61",
      "transactionType": "CALL",
      "contractName": "ImpactCards_Gen1",
      "contractAddress": "0x653d3CBa5fabc246946c0C393Ce89e862DADd3bf",
      "function": "setPayees(uint256,address[2],uint256[2])",
      "arguments": [
        "13",
        "[0x7c3bA47e39741B37F6093b1c2E534f1E84C0B36b, 0x59992E3626D6d5471D676f2de5A6e6dcF0e06De7]",
        "[50, 50]"
      ],
      "rpc": "https://optimism-goerli.infura.io/v3/43fca432338a495eb10c99ecb94eff5f",
      "transaction": {
        "type": "0x00",
        "from": "0x1de380594de7aba6442d879713c86ba7395abe7b",
        "to": "0x653d3cba5fabc246946c0c393ce89e862dadd3bf",
        "gas": "0x2aaf3",
        "value": "0x0",
        "data": "0x1cff6268000000000000000000000000000000000000000000000000000000000000000d0000000000000000000000007c3ba47e39741b37f6093b1c2e534f1e84c0b36b00000000000000000000000059992e3626d6d5471d676f2de5a6e6dcf0e06de700000000000000000000000000000000000000000000000000000000000000320000000000000000000000000000000000000000000000000000000000000032",
        "nonce": "0x71"
      },
      "additionalContracts": [],
      "isFixedGasLimit": false
    },
    {
      "hash": "0xfd7a6ed75ef3ba55bab6a971476b13cc905719d16d56b271436ee96b54e78b5e",
      "transactionType": "CALL",
      "contractName": "ImpactCards_Gen1",
      "contractAddress": "0x653d3CBa5fabc246946c0C393Ce89e862DADd3bf",
      "function": "setPayees(uint256,address[2],uint256[2])",
      "arguments": [
        "14",
        "[0x7c3bA47e39741B37F6093b1c2E534f1E84C0B36b, 0x59992E3626D6d5471D676f2de5A6e6dcF0e06De7]",
        "[50, 50]"
      ],
      "rpc": "https://optimism-goerli.infura.io/v3/43fca432338a495eb10c99ecb94eff5f",
      "transaction": {
        "type": "0x00",
        "from": "0x1de380594de7aba6442d879713c86ba7395abe7b",
        "to": "0x653d3cba5fabc246946c0c393ce89e862dadd3bf",
        "gas": "0x2aaf3",
        "value": "0x0",
        "data": "0x1cff6268000000000000000000000000000000000000000000000000000000000000000e0000000000000000000000007c3ba47e39741b37f6093b1c2e534f1e84c0b36b00000000000000000000000059992e3626d6d5471d676f2de5a6e6dcf0e06de700000000000000000000000000000000000000000000000000000000000000320000000000000000000000000000000000000000000000000000000000000032",
        "nonce": "0x72"
      },
      "additionalContracts": [],
      "isFixedGasLimit": false
    },
    {
      "hash": "0xfa284b61ca4ffd37900d49e2ff206002e43afe591b4da65ad69c758227086de2",
      "transactionType": "CALL",
      "contractName": "ImpactCards_Gen1",
      "contractAddress": "0x653d3CBa5fabc246946c0C393Ce89e862DADd3bf",
      "function": "setPayees(uint256,address[2],uint256[2])",
      "arguments": [
        "15",
        "[0x7c3bA47e39741B37F6093b1c2E534f1E84C0B36b, 0x59992E3626D6d5471D676f2de5A6e6dcF0e06De7]",
        "[50, 50]"
      ],
      "rpc": "https://optimism-goerli.infura.io/v3/43fca432338a495eb10c99ecb94eff5f",
      "transaction": {
        "type": "0x00",
        "from": "0x1de380594de7aba6442d879713c86ba7395abe7b",
        "to": "0x653d3cba5fabc246946c0c393ce89e862dadd3bf",
        "gas": "0x2aaf3",
        "value": "0x0",
        "data": "0x1cff6268000000000000000000000000000000000000000000000000000000000000000f0000000000000000000000007c3ba47e39741b37f6093b1c2e534f1e84c0b36b00000000000000000000000059992e3626d6d5471d676f2de5a6e6dcf0e06de700000000000000000000000000000000000000000000000000000000000000320000000000000000000000000000000000000000000000000000000000000032",
        "nonce": "0x73"
      },
      "additionalContracts": [],
      "isFixedGasLimit": false
    },
    {
      "hash": "0x5bd189aa19f7d04fe1b3558ffb4c0284d139c74af5adbea0dd71b7eb3a239b78",
      "transactionType": "CALL",
      "contractName": "ImpactCards_Gen1",
      "contractAddress": "0x653d3CBa5fabc246946c0C393Ce89e862DADd3bf",
      "function": "setCardProperties(uint256,string,string,uint256)",
      "arguments": [
        "1",
        "Austin Griffith",
        "Developer, Creator of Scaffoldeth and many others",
        "1"
      ],
      "rpc": "https://optimism-goerli.infura.io/v3/43fca432338a495eb10c99ecb94eff5f",
      "transaction": {
        "type": "0x00",
        "from": "0x1de380594de7aba6442d879713c86ba7395abe7b",
        "to": "0x653d3cba5fabc246946c0c393ce89e862dadd3bf",
        "gas": "0x2e96d",
        "value": "0x0",
        "data": "0x7b45a1bf0000000000000000000000000000000000000000000000000000000000000001000000000000000000000000000000000000000000000000000000000000008000000000000000000000000000000000000000000000000000000000000000c00000000000000000000000000000000000000000000000000000000000000001000000000000000000000000000000000000000000000000000000000000000f41757374696e20477269666669746800000000000000000000000000000000000000000000000000000000000000000000000000000000000000000000000031446576656c6f7065722c2043726561746f72206f662053636166666f6c6465746820616e64206d616e79206f7468657273000000000000000000000000000000",
        "nonce": "0x74"
      },
      "additionalContracts": [],
      "isFixedGasLimit": false
    },
    {
      "hash": "0x2888810803bd3b7f6efe82e88b05bd5a83553ad74bc7960357aa623f1dcbf564",
      "transactionType": "CALL",
      "contractName": "ImpactCards_Gen1",
      "contractAddress": "0x653d3CBa5fabc246946c0C393Ce89e862DADd3bf",
      "function": "setCardProperties(uint256,string,string,uint256)",
      "arguments": [
        "2",
        "Eth Rank",
        "Creator of Eth Rank",
        "1"
      ],
      "rpc": "https://optimism-goerli.infura.io/v3/43fca432338a495eb10c99ecb94eff5f",
      "transaction": {
        "type": "0x00",
        "from": "0x1de380594de7aba6442d879713c86ba7395abe7b",
        "to": "0x653d3cba5fabc246946c0c393ce89e862dadd3bf",
        "gas": "0x1f6d8",
        "value": "0x0",
        "data": "0x7b45a1bf0000000000000000000000000000000000000000000000000000000000000002000000000000000000000000000000000000000000000000000000000000008000000000000000000000000000000000000000000000000000000000000000c0000000000000000000000000000000000000000000000000000000000000000100000000000000000000000000000000000000000000000000000000000000084574682052616e6b000000000000000000000000000000000000000000000000000000000000000000000000000000000000000000000000000000000000001343726561746f72206f66204574682052616e6b00000000000000000000000000",
        "nonce": "0x75"
      },
      "additionalContracts": [],
      "isFixedGasLimit": false
    },
    {
      "hash": "0x869f2b24f5602088ddf2fb5799a21c9f7ed51cba6bea6d1dff08f33caf6f418c",
      "transactionType": "CALL",
      "contractName": "ImpactCards_Gen1",
      "contractAddress": "0x653d3CBa5fabc246946c0C393Ce89e862DADd3bf",
      "function": "setCardProperties(uint256,string,string,uint256)",
      "arguments": [
        "3",
        "Joseph Lubin",
        "Co-Founder of Consensys",
        "1"
      ],
      "rpc": "https://optimism-goerli.infura.io/v3/43fca432338a495eb10c99ecb94eff5f",
      "transaction": {
        "type": "0x00",
        "from": "0x1de380594de7aba6442d879713c86ba7395abe7b",
        "to": "0x653d3cba5fabc246946c0c393ce89e862dadd3bf",
        "gas": "0x1f75d",
        "value": "0x0",
        "data": "0x7b45a1bf0000000000000000000000000000000000000000000000000000000000000003000000000000000000000000000000000000000000000000000000000000008000000000000000000000000000000000000000000000000000000000000000c00000000000000000000000000000000000000000000000000000000000000001000000000000000000000000000000000000000000000000000000000000000c4a6f73657068204c7562696e00000000000000000000000000000000000000000000000000000000000000000000000000000000000000000000000000000017436f2d466f756e646572206f6620436f6e73656e737973000000000000000000",
        "nonce": "0x76"
      },
      "additionalContracts": [],
      "isFixedGasLimit": false
    },
    {
      "hash": "0x1202da4012e0607a38c3d4da6e98b90bb841e8eb5c768947197c9c37383fbeb4",
      "transactionType": "CALL",
      "contractName": "ImpactCards_Gen1",
      "contractAddress": "0x653d3CBa5fabc246946c0C393Ce89e862DADd3bf",
      "function": "setCardProperties(uint256,string,string,uint256)",
      "arguments": [
        "4",
        "Juan Benet",
        "Creator of IPFS",
        "1"
      ],
      "rpc": "https://optimism-goerli.infura.io/v3/43fca432338a495eb10c99ecb94eff5f",
      "transaction": {
        "type": "0x00",
        "from": "0x1de380594de7aba6442d879713c86ba7395abe7b",
        "to": "0x653d3cba5fabc246946c0c393ce89e862dadd3bf",
        "gas": "0x1f6b8",
        "value": "0x0",
        "data": "0x7b45a1bf0000000000000000000000000000000000000000000000000000000000000004000000000000000000000000000000000000000000000000000000000000008000000000000000000000000000000000000000000000000000000000000000c00000000000000000000000000000000000000000000000000000000000000001000000000000000000000000000000000000000000000000000000000000000a4a75616e2042656e657400000000000000000000000000000000000000000000000000000000000000000000000000000000000000000000000000000000000f43726561746f72206f6620495046530000000000000000000000000000000000",
        "nonce": "0x77"
      },
      "additionalContracts": [],
      "isFixedGasLimit": false
    },
    {
      "hash": "0xe33101447e0ccfa12d8b1f650c5f810fab58f41d3888ea0f5b9d7b7820286d8c",
      "transactionType": "CALL",
      "contractName": "ImpactCards_Gen1",
      "contractAddress": "0x653d3CBa5fabc246946c0C393Ce89e862DADd3bf",
      "function": "setCardProperties(uint256,string,string,uint256)",
      "arguments": [
        "5",
        "Kevin Owocki",
        "Creator of Gitcoin",
        "1"
      ],
      "rpc": "https://optimism-goerli.infura.io/v3/43fca432338a495eb10c99ecb94eff5f",
      "transaction": {
        "type": "0x00",
        "from": "0x1de380594de7aba6442d879713c86ba7395abe7b",
        "to": "0x653d3cba5fabc246946c0c393ce89e862dadd3bf",
        "gas": "0x214a2",
        "value": "0x0",
        "data": "0x7b45a1bf0000000000000000000000000000000000000000000000000000000000000005000000000000000000000000000000000000000000000000000000000000008000000000000000000000000000000000000000000000000000000000000000c00000000000000000000000000000000000000000000000000000000000000001000000000000000000000000000000000000000000000000000000000000000c4b6576696e204f776f636b690000000000000000000000000000000000000000000000000000000000000000000000000000000000000000000000000000001243726561746f72206f6620476974636f696e0000000000000000000000000000",
        "nonce": "0x78"
      },
      "additionalContracts": [],
      "isFixedGasLimit": false
    },
    {
      "hash": "0x7397c7dae6c5aebff8216a4b3b6c11ab34910df04edd088512d1c2b45c1e738e",
      "transactionType": "CALL",
      "contractName": "ImpactCards_Gen1",
      "contractAddress": "0x653d3CBa5fabc246946c0C393Ce89e862DADd3bf",
      "function": "setCardProperties(uint256,string,string,uint256)",
      "arguments": [
        "6",
        "Satoshi Nakamoto",
        "Creator of Bitcoin",
        "1"
      ],
      "rpc": "https://optimism-goerli.infura.io/v3/43fca432338a495eb10c99ecb94eff5f",
      "transaction": {
        "type": "0x00",
        "from": "0x1de380594de7aba6442d879713c86ba7395abe7b",
        "to": "0x653d3cba5fabc246946c0c393ce89e862dadd3bf",
        "gas": "0x214e8",
        "value": "0x0",
        "data": "0x7b45a1bf0000000000000000000000000000000000000000000000000000000000000006000000000000000000000000000000000000000000000000000000000000008000000000000000000000000000000000000000000000000000000000000000c0000000000000000000000000000000000000000000000000000000000000000100000000000000000000000000000000000000000000000000000000000000105361746f736869204e616b616d6f746f00000000000000000000000000000000000000000000000000000000000000000000000000000000000000000000001243726561746f72206f6620426974636f696e0000000000000000000000000000",
        "nonce": "0x79"
      },
      "additionalContracts": [],
      "isFixedGasLimit": false
    },
    {
      "hash": "0x9e13d65590a5e165bc797698acc3b71afd1ac00b6ae7a0c24c8af5478f0962e8",
      "transactionType": "CALL",
      "contractName": "ImpactCards_Gen1",
      "contractAddress": "0x653d3CBa5fabc246946c0C393Ce89e862DADd3bf",
      "function": "setCardProperties(uint256,string,string,uint256)",
      "arguments": [
        "7",
        "Guild XYZ Team",
        "Guild XYZ Team",
        "1"
      ],
      "rpc": "https://optimism-goerli.infura.io/v3/43fca432338a495eb10c99ecb94eff5f",
      "transaction": {
        "type": "0x00",
        "from": "0x1de380594de7aba6442d879713c86ba7395abe7b",
        "to": "0x653d3cba5fabc246946c0c393ce89e862dadd3bf",
        "gas": "0x2147f",
        "value": "0x0",
        "data": "0x7b45a1bf0000000000000000000000000000000000000000000000000000000000000007000000000000000000000000000000000000000000000000000000000000008000000000000000000000000000000000000000000000000000000000000000c00000000000000000000000000000000000000000000000000000000000000001000000000000000000000000000000000000000000000000000000000000000e4775696c642058595a205465616d000000000000000000000000000000000000000000000000000000000000000000000000000000000000000000000000000e4775696c642058595a205465616d000000000000000000000000000000000000",
        "nonce": "0x7a"
      },
      "additionalContracts": [],
      "isFixedGasLimit": false
    },
    {
      "hash": "0x66f0fa75d21cb6ecd9932adb967140806f4ee980a00e4bc1eab9c665035c6a3c",
      "transactionType": "CALL",
      "contractName": "ImpactCards_Gen1",
      "contractAddress": "0x653d3CBa5fabc246946c0C393Ce89e862DADd3bf",
      "function": "setCardProperties(uint256,string,string,uint256)",
      "arguments": [
        "8",
        "Futureverse",
        "Creator of Futureverse",
        "1"
      ],
      "rpc": "https://optimism-goerli.infura.io/v3/43fca432338a495eb10c99ecb94eff5f",
      "transaction": {
        "type": "0x00",
        "from": "0x1de380594de7aba6442d879713c86ba7395abe7b",
        "to": "0x653d3cba5fabc246946c0c393ce89e862dadd3bf",
        "gas": "0x1f73c",
        "value": "0x0",
        "data": "0x7b45a1bf0000000000000000000000000000000000000000000000000000000000000008000000000000000000000000000000000000000000000000000000000000008000000000000000000000000000000000000000000000000000000000000000c00000000000000000000000000000000000000000000000000000000000000001000000000000000000000000000000000000000000000000000000000000000b4675747572657665727365000000000000000000000000000000000000000000000000000000000000000000000000000000000000000000000000000000001643726561746f72206f6620467574757265766572736500000000000000000000",
        "nonce": "0x7b"
      },
      "additionalContracts": [],
      "isFixedGasLimit": false
    },
    {
      "hash": "0x5117e95b8f228877ba70fa08a415f16689df09b614466555bafef15d289dd750",
      "transactionType": "CALL",
      "contractName": "ImpactCards_Gen1",
      "contractAddress": "0x653d3CBa5fabc246946c0C393Ce89e862DADd3bf",
      "function": "setCardProperties(uint256,string,string,uint256)",
      "arguments": [
        "9",
        "Optimism",
        "Creator of Optimism",
        "1"
      ],
      "rpc": "https://optimism-goerli.infura.io/v3/43fca432338a495eb10c99ecb94eff5f",
      "transaction": {
        "type": "0x00",
        "from": "0x1de380594de7aba6442d879713c86ba7395abe7b",
        "to": "0x653d3cba5fabc246946c0c393ce89e862dadd3bf",
        "gas": "0x1f6d8",
        "value": "0x0",
        "data": "0x7b45a1bf0000000000000000000000000000000000000000000000000000000000000009000000000000000000000000000000000000000000000000000000000000008000000000000000000000000000000000000000000000000000000000000000c0000000000000000000000000000000000000000000000000000000000000000100000000000000000000000000000000000000000000000000000000000000084f7074696d69736d000000000000000000000000000000000000000000000000000000000000000000000000000000000000000000000000000000000000001343726561746f72206f66204f7074696d69736d00000000000000000000000000",
        "nonce": "0x7c"
      },
      "additionalContracts": [],
      "isFixedGasLimit": false
    },
    {
      "hash": "0xed18dcb732a2b083ec01d1a96a7ecd0a1e338e4cf1560a437c21c03e9ade6cb0",
      "transactionType": "CALL",
      "contractName": "ImpactCards_Gen1",
      "contractAddress": "0x653d3CBa5fabc246946c0C393Ce89e862DADd3bf",
      "function": "setCardProperties(uint256,string,string,uint256)",
      "arguments": [
        "10",
        "ZachXBT",
        "Creator of ZachXBT",
        "1"
      ],
      "rpc": "https://optimism-goerli.infura.io/v3/43fca432338a495eb10c99ecb94eff5f",
      "transaction": {
        "type": "0x00",
        "from": "0x1de380594de7aba6442d879713c86ba7395abe7b",
        "to": "0x653d3cba5fabc246946c0c393ce89e862dadd3bf",
        "gas": "0x1f6b8",
        "value": "0x0",
        "data": "0x7b45a1bf000000000000000000000000000000000000000000000000000000000000000a000000000000000000000000000000000000000000000000000000000000008000000000000000000000000000000000000000000000000000000000000000c0000000000000000000000000000000000000000000000000000000000000000100000000000000000000000000000000000000000000000000000000000000075a61636858425400000000000000000000000000000000000000000000000000000000000000000000000000000000000000000000000000000000000000001243726561746f72206f66205a6163685842540000000000000000000000000000",
        "nonce": "0x7d"
      },
      "additionalContracts": [],
      "isFixedGasLimit": false
    },
    {
      "hash": "0xe6a5267ecc7cb11b75d05fc357258e5c1b42b88138968e5c090325944fddcca7",
      "transactionType": "CALL",
      "contractName": "ImpactCards_Gen1",
      "contractAddress": "0x653d3CBa5fabc246946c0C393Ce89e862DADd3bf",
      "function": "setCardProperties(uint256,string,string,uint256)",
      "arguments": [
        "11",
        "Stephen Chavez",
        "Creator of Stephen Chavez",
        "1"
      ],
      "rpc": "https://optimism-goerli.infura.io/v3/43fca432338a495eb10c99ecb94eff5f",
      "transaction": {
        "type": "0x00",
        "from": "0x1de380594de7aba6442d879713c86ba7395abe7b",
        "to": "0x653d3cba5fabc246946c0c393ce89e862dadd3bf",
        "gas": "0x1f79f",
        "value": "0x0",
        "data": "0x7b45a1bf000000000000000000000000000000000000000000000000000000000000000b000000000000000000000000000000000000000000000000000000000000008000000000000000000000000000000000000000000000000000000000000000c00000000000000000000000000000000000000000000000000000000000000001000000000000000000000000000000000000000000000000000000000000000e5374657068656e2043686176657a000000000000000000000000000000000000000000000000000000000000000000000000000000000000000000000000001943726561746f72206f66205374657068656e2043686176657a00000000000000",
        "nonce": "0x7e"
      },
      "additionalContracts": [],
      "isFixedGasLimit": false
    },
    {
      "hash": "0x63d8103ea694398b8c6cd7e98f588601b09a246a30adcda83a31de5055caca25",
      "transactionType": "CALL",
      "contractName": "ImpactCards_Gen1",
      "contractAddress": "0x653d3CBa5fabc246946c0C393Ce89e862DADd3bf",
      "function": "setCardProperties(uint256,string,string,uint256)",
      "arguments": [
        "12",
        "Rommel Brito",
        "Creator of Rommel Brito",
        "1"
      ],
      "rpc": "https://optimism-goerli.infura.io/v3/43fca432338a495eb10c99ecb94eff5f",
      "transaction": {
        "type": "0x00",
        "from": "0x1de380594de7aba6442d879713c86ba7395abe7b",
        "to": "0x653d3cba5fabc246946c0c393ce89e862dadd3bf",
        "gas": "0x1f75d",
        "value": "0x0",
        "data": "0x7b45a1bf000000000000000000000000000000000000000000000000000000000000000c000000000000000000000000000000000000000000000000000000000000008000000000000000000000000000000000000000000000000000000000000000c00000000000000000000000000000000000000000000000000000000000000001000000000000000000000000000000000000000000000000000000000000000c526f6d6d656c20427269746f0000000000000000000000000000000000000000000000000000000000000000000000000000000000000000000000000000001743726561746f72206f6620526f6d6d656c20427269746f000000000000000000",
        "nonce": "0x7f"
      },
      "additionalContracts": [],
      "isFixedGasLimit": false
    },
    {
      "hash": "0x53eee995531d46fbe12fb566696c817e43faf441128764e29dca3aeb8fe9b760",
      "transactionType": "CALL",
      "contractName": "ImpactCards_Gen1",
      "contractAddress": "0x653d3CBa5fabc246946c0C393Ce89e862DADd3bf",
      "function": "setCardProperties(uint256,string,string,uint256)",
      "arguments": [
        "13",
        "Ethereum Denver",
        "Creator of Ethereum Denver",
        "1"
      ],
      "rpc": "https://optimism-goerli.infura.io/v3/43fca432338a495eb10c99ecb94eff5f",
      "transaction": {
        "type": "0x00",
        "from": "0x1de380594de7aba6442d879713c86ba7395abe7b",
        "to": "0x653d3cba5fabc246946c0c393ce89e862dadd3bf",
        "gas": "0x1f7c1",
        "value": "0x0",
        "data": "0x7b45a1bf000000000000000000000000000000000000000000000000000000000000000d000000000000000000000000000000000000000000000000000000000000008000000000000000000000000000000000000000000000000000000000000000c00000000000000000000000000000000000000000000000000000000000000001000000000000000000000000000000000000000000000000000000000000000f457468657265756d2044656e7665720000000000000000000000000000000000000000000000000000000000000000000000000000000000000000000000001a43726561746f72206f6620457468657265756d2044656e766572000000000000",
        "nonce": "0x80"
      },
      "additionalContracts": [],
      "isFixedGasLimit": false
    },
    {
      "hash": "0x73cc2b63c5128faa61e7e64dcadf9d1d89f6436aac1d4e136f439d721c7ed7ef",
      "transactionType": "CALL",
      "contractName": "ImpactCards_Gen1",
      "contractAddress": "0x653d3CBa5fabc246946c0C393Ce89e862DADd3bf",
      "function": "setCardProperties(uint256,string,string,uint256)",
      "arguments": [
        "14",
        "Ethereum Foundation",
        "Creator of Ethereum Foundation",
        "1"
      ],
      "rpc": "https://optimism-goerli.infura.io/v3/43fca432338a495eb10c99ecb94eff5f",
      "transaction": {
        "type": "0x00",
        "from": "0x1de380594de7aba6442d879713c86ba7395abe7b",
        "to": "0x653d3cba5fabc246946c0c393ce89e862dadd3bf",
        "gas": "0x1f845",
        "value": "0x0",
        "data": "0x7b45a1bf000000000000000000000000000000000000000000000000000000000000000e000000000000000000000000000000000000000000000000000000000000008000000000000000000000000000000000000000000000000000000000000000c000000000000000000000000000000000000000000000000000000000000000010000000000000000000000000000000000000000000000000000000000000013457468657265756d20466f756e646174696f6e00000000000000000000000000000000000000000000000000000000000000000000000000000000000000001e43726561746f72206f6620457468657265756d20466f756e646174696f6e0000",
        "nonce": "0x81"
      },
      "additionalContracts": [],
      "isFixedGasLimit": false
    },
    {
      "hash": "0xa1815d29c45c883e5ac4484f9e24bdec105e70ac32878ca259822308efc404c9",
      "transactionType": "CALL",
      "contractName": "ImpactCards_Gen1",
      "contractAddress": "0x653d3CBa5fabc246946c0C393Ce89e862DADd3bf",
      "function": "setCardProperties(uint256,string,string,uint256)",
      "arguments": [
        "15",
        "Patrick Collins",
        "Creator of Patrick Collins",
        "1"
      ],
      "rpc": "https://optimism-goerli.infura.io/v3/43fca432338a495eb10c99ecb94eff5f",
      "transaction": {
        "type": "0x00",
        "from": "0x1de380594de7aba6442d879713c86ba7395abe7b",
        "to": "0x653d3cba5fabc246946c0c393ce89e862dadd3bf",
        "gas": "0x1f7c1",
        "value": "0x0",
        "data": "0x7b45a1bf000000000000000000000000000000000000000000000000000000000000000f000000000000000000000000000000000000000000000000000000000000008000000000000000000000000000000000000000000000000000000000000000c00000000000000000000000000000000000000000000000000000000000000001000000000000000000000000000000000000000000000000000000000000000f5061747269636b20436f6c6c696e730000000000000000000000000000000000000000000000000000000000000000000000000000000000000000000000001a43726561746f72206f66205061747269636b20436f6c6c696e73000000000000",
        "nonce": "0x82"
      },
      "additionalContracts": [],
      "isFixedGasLimit": false
    }
  ],
  "receipts": [
    {
      "transactionHash": "0x58c5747469a82aa5807d588f5464804ce498c684feb0ce660ed51c9864ad5709",
      "transactionIndex": "0x1",
      "blockHash": "0x2a2b94dde65ed4e0189eeea96753ea954b72f835775226404cacae6e8e3fda04",
      "blockNumber": "0x802eb9",
      "from": "0x1De380594dE7ABA6442D879713c86Ba7395abE7B",
      "to": null,
      "cumulativeGasUsed": "0x409a1c",
      "gasUsed": "0x3fdff7",
      "contractAddress": "0x653d3CBa5fabc246946c0C393Ce89e862DADd3bf",
      "logs": [
        {
          "address": "0x653d3CBa5fabc246946c0C393Ce89e862DADd3bf",
          "topics": [
            "0x8be0079c531659141344cd1fd0a4f28419497f9722a3daafe3b4186f6b6457e0",
            "0x0000000000000000000000000000000000000000000000000000000000000000",
            "0x0000000000000000000000001de380594de7aba6442d879713c86ba7395abe7b"
          ],
          "data": "0x",
          "blockHash": "0x2a2b94dde65ed4e0189eeea96753ea954b72f835775226404cacae6e8e3fda04",
          "blockNumber": "0x802eb9",
          "transactionHash": "0x58c5747469a82aa5807d588f5464804ce498c684feb0ce660ed51c9864ad5709",
          "transactionIndex": "0x1",
          "logIndex": "0x0",
          "removed": false
        }
      ],
      "status": "0x1",
      "logsBloom": "0x000000000000000000000000000000000000000000000000008000000000000000000000000000000000000000000000000000000000000000000000000000080000000000000000000000000000000000010000000000000000000000000000000000000a0000000000000000000800000000000020000000000000000000400000000000000000000000000000040000000000000000000000000000000000000000000000000000000000000000000000000000000000000000000000000000001000000000000000000000000000200000000000000000000000000020000000000000000000000000000000000000000000000000000000000000000000",
      "type": "0x0",
      "effectiveGasPrice": "0x59682f64"
    },
    {
      "transactionHash": "0x9450548ea69c25b9d0a556d4e9fa62405b65eaaec316501bcb96f46510b9a43a",
      "transactionIndex": "0x3",
      "blockHash": "0xbaba048c4ae07f91fbf391eb5639297de6289eef8c97bf1194aa7afdad42d0d6",
      "blockNumber": "0x802ebd",
      "from": "0x1De380594dE7ABA6442D879713c86Ba7395abE7B",
      "to": "0x653d3CBa5fabc246946c0C393Ce89e862DADd3bf",
      "cumulativeGasUsed": "0x5af43",
      "gasUsed": "0x1d2fa",
      "contractAddress": null,
      "logs": [
        {
          "address": "0x653d3CBa5fabc246946c0C393Ce89e862DADd3bf",
          "topics": [
            "0x120ed5e733cc0dd8ace773ccaa200600da5cd3282021a6770067f439de80615e"
          ],
          "data": "0x00000000000000000000000000000000000000000000000000000000000000010000000000000000000000007c3ba47e39741b37f6093b1c2e534f1e84c0b36b00000000000000000000000059992e3626d6d5471d676f2de5a6e6dcf0e06de7",
          "blockHash": "0xbaba048c4ae07f91fbf391eb5639297de6289eef8c97bf1194aa7afdad42d0d6",
          "blockNumber": "0x802ebd",
          "transactionHash": "0x9450548ea69c25b9d0a556d4e9fa62405b65eaaec316501bcb96f46510b9a43a",
          "transactionIndex": "0x3",
          "logIndex": "0x2",
          "removed": false
        },
        {
          "address": "0x653d3CBa5fabc246946c0C393Ce89e862DADd3bf",
          "topics": [
            "0xde702a3afda93461efb92f10ed3cdd0d0df3d292af2fc9dd64628e5f31a1901d"
          ],
          "data": "0x000000000000000000000000000000000000000000000000000000000000000100000000000000000000000000000000000000000000000000000000000000320000000000000000000000000000000000000000000000000000000000000032",
          "blockHash": "0xbaba048c4ae07f91fbf391eb5639297de6289eef8c97bf1194aa7afdad42d0d6",
          "blockNumber": "0x802ebd",
          "transactionHash": "0x9450548ea69c25b9d0a556d4e9fa62405b65eaaec316501bcb96f46510b9a43a",
          "transactionIndex": "0x3",
          "logIndex": "0x3",
          "removed": false
        }
      ],
      "status": "0x1",
      "logsBloom": "0x00000000000000000000000000000000200000000000000000000000000000002000000000000000000000000000000000000000000000000000000000000008000000000000000000000000000000000000000000000000000000000000000000000000040000000000000000000000000000000020000000000000000000000000000000000000000000000000000000000000000000000000000000000000400000000000000000000000000000000000000004000000000000000000000000001000000000000000000000000000000000000000000000000000000000000000000000000000000000000008000000000000000000000000000000000000",
      "type": "0x0",
      "effectiveGasPrice": "0x59682f64"
    },
    {
      "transactionHash": "0xac7d9f7ee4be6298e6e1f9b06c155a7d3c2bf6fcf053a92c1573cf24f954df40",
      "transactionIndex": "0x1",
      "blockHash": "0x4205cff126bdc4d177c34546c03576f6d36d2c6673ca5ba0500e981e0d9a89cc",
      "blockNumber": "0x802ec1",
      "from": "0x1De380594dE7ABA6442D879713c86Ba7395abE7B",
      "to": "0x653d3CBa5fabc246946c0C393Ce89e862DADd3bf",
      "cumulativeGasUsed": "0x28a0b",
      "gasUsed": "0x1d2fa",
      "contractAddress": null,
      "logs": [
        {
          "address": "0x653d3CBa5fabc246946c0C393Ce89e862DADd3bf",
          "topics": [
            "0x120ed5e733cc0dd8ace773ccaa200600da5cd3282021a6770067f439de80615e"
          ],
          "data": "0x00000000000000000000000000000000000000000000000000000000000000020000000000000000000000007c3ba47e39741b37f6093b1c2e534f1e84c0b36b00000000000000000000000059992e3626d6d5471d676f2de5a6e6dcf0e06de7",
          "blockHash": "0x4205cff126bdc4d177c34546c03576f6d36d2c6673ca5ba0500e981e0d9a89cc",
          "blockNumber": "0x802ec1",
          "transactionHash": "0xac7d9f7ee4be6298e6e1f9b06c155a7d3c2bf6fcf053a92c1573cf24f954df40",
          "transactionIndex": "0x1",
          "logIndex": "0x0",
          "removed": false
        },
        {
          "address": "0x653d3CBa5fabc246946c0C393Ce89e862DADd3bf",
          "topics": [
            "0xde702a3afda93461efb92f10ed3cdd0d0df3d292af2fc9dd64628e5f31a1901d"
          ],
          "data": "0x000000000000000000000000000000000000000000000000000000000000000200000000000000000000000000000000000000000000000000000000000000320000000000000000000000000000000000000000000000000000000000000032",
          "blockHash": "0x4205cff126bdc4d177c34546c03576f6d36d2c6673ca5ba0500e981e0d9a89cc",
          "blockNumber": "0x802ec1",
          "transactionHash": "0xac7d9f7ee4be6298e6e1f9b06c155a7d3c2bf6fcf053a92c1573cf24f954df40",
          "transactionIndex": "0x1",
          "logIndex": "0x1",
          "removed": false
        }
      ],
      "status": "0x1",
      "logsBloom": "0x00000000000000000000000000000000200000000000000000000000000000002000000000000000000000000000000000000000000000000000000000000008000000000000000000000000000000000000000000000000000000000000000000000000040000000000000000000000000000000020000000000000000000000000000000000000000000000000000000000000000000000000000000000000400000000000000000000000000000000000000004000000000000000000000000001000000000000000000000000000000000000000000000000000000000000000000000000000000000000008000000000000000000000000000000000000",
      "type": "0x0",
      "effectiveGasPrice": "0x59682f64"
    },
    {
      "transactionHash": "0x507fa13ca0b86b066911c4be45ad5733fe5142f38505b0ce56b8652bed8abed5",
      "transactionIndex": "0x1",
      "blockHash": "0x8f23db2a3878e6ced858e123e60266e8439bfd26b991941e5e99697987876123",
      "blockNumber": "0x802ec4",
      "from": "0x1De380594dE7ABA6442D879713c86Ba7395abE7B",
      "to": "0x653d3CBa5fabc246946c0C393Ce89e862DADd3bf",
      "cumulativeGasUsed": "0x28a0b",
      "gasUsed": "0x1d2fa",
      "contractAddress": null,
      "logs": [
        {
          "address": "0x653d3CBa5fabc246946c0C393Ce89e862DADd3bf",
          "topics": [
            "0x120ed5e733cc0dd8ace773ccaa200600da5cd3282021a6770067f439de80615e"
          ],
          "data": "0x00000000000000000000000000000000000000000000000000000000000000030000000000000000000000007c3ba47e39741b37f6093b1c2e534f1e84c0b36b00000000000000000000000059992e3626d6d5471d676f2de5a6e6dcf0e06de7",
          "blockHash": "0x8f23db2a3878e6ced858e123e60266e8439bfd26b991941e5e99697987876123",
          "blockNumber": "0x802ec4",
          "transactionHash": "0x507fa13ca0b86b066911c4be45ad5733fe5142f38505b0ce56b8652bed8abed5",
          "transactionIndex": "0x1",
          "logIndex": "0x0",
          "removed": false
        },
        {
          "address": "0x653d3CBa5fabc246946c0C393Ce89e862DADd3bf",
          "topics": [
            "0xde702a3afda93461efb92f10ed3cdd0d0df3d292af2fc9dd64628e5f31a1901d"
          ],
          "data": "0x000000000000000000000000000000000000000000000000000000000000000300000000000000000000000000000000000000000000000000000000000000320000000000000000000000000000000000000000000000000000000000000032",
          "blockHash": "0x8f23db2a3878e6ced858e123e60266e8439bfd26b991941e5e99697987876123",
          "blockNumber": "0x802ec4",
          "transactionHash": "0x507fa13ca0b86b066911c4be45ad5733fe5142f38505b0ce56b8652bed8abed5",
          "transactionIndex": "0x1",
          "logIndex": "0x1",
          "removed": false
        }
      ],
      "status": "0x1",
      "logsBloom": "0x00000000000000000000000000000000200000000000000000000000000000002000000000000000000000000000000000000000000000000000000000000008000000000000000000000000000000000000000000000000000000000000000000000000040000000000000000000000000000000020000000000000000000000000000000000000000000000000000000000000000000000000000000000000400000000000000000000000000000000000000004000000000000000000000000001000000000000000000000000000000000000000000000000000000000000000000000000000000000000008000000000000000000000000000000000000",
      "type": "0x0",
      "effectiveGasPrice": "0x59682f64"
    },
    {
      "transactionHash": "0x31948537b97a7e2aa71e3505d2122cd2d6403f61fe1f586d023633776afe024e",
      "transactionIndex": "0x1",
      "blockHash": "0xf1d94ad6ad5bb6954f831c2f4f07c9502b55fbb85cc1a18a8362357f952cfe90",
      "blockNumber": "0x802ec8",
      "from": "0x1De380594dE7ABA6442D879713c86Ba7395abE7B",
      "to": "0x653d3CBa5fabc246946c0C393Ce89e862DADd3bf",
      "cumulativeGasUsed": "0x28a0b",
      "gasUsed": "0x1d2fa",
      "contractAddress": null,
      "logs": [
        {
          "address": "0x653d3CBa5fabc246946c0C393Ce89e862DADd3bf",
          "topics": [
            "0x120ed5e733cc0dd8ace773ccaa200600da5cd3282021a6770067f439de80615e"
          ],
          "data": "0x00000000000000000000000000000000000000000000000000000000000000040000000000000000000000007c3ba47e39741b37f6093b1c2e534f1e84c0b36b00000000000000000000000059992e3626d6d5471d676f2de5a6e6dcf0e06de7",
          "blockHash": "0xf1d94ad6ad5bb6954f831c2f4f07c9502b55fbb85cc1a18a8362357f952cfe90",
          "blockNumber": "0x802ec8",
          "transactionHash": "0x31948537b97a7e2aa71e3505d2122cd2d6403f61fe1f586d023633776afe024e",
          "transactionIndex": "0x1",
          "logIndex": "0x0",
          "removed": false
        },
        {
          "address": "0x653d3CBa5fabc246946c0C393Ce89e862DADd3bf",
          "topics": [
            "0xde702a3afda93461efb92f10ed3cdd0d0df3d292af2fc9dd64628e5f31a1901d"
          ],
          "data": "0x000000000000000000000000000000000000000000000000000000000000000400000000000000000000000000000000000000000000000000000000000000320000000000000000000000000000000000000000000000000000000000000032",
          "blockHash": "0xf1d94ad6ad5bb6954f831c2f4f07c9502b55fbb85cc1a18a8362357f952cfe90",
          "blockNumber": "0x802ec8",
          "transactionHash": "0x31948537b97a7e2aa71e3505d2122cd2d6403f61fe1f586d023633776afe024e",
          "transactionIndex": "0x1",
          "logIndex": "0x1",
          "removed": false
        }
      ],
      "status": "0x1",
      "logsBloom": "0x00000000000000000000000000000000200000000000000000000000000000002000000000000000000000000000000000000000000000000000000000000008000000000000000000000000000000000000000000000000000000000000000000000000040000000000000000000000000000000020000000000000000000000000000000000000000000000000000000000000000000000000000000000000400000000000000000000000000000000000000004000000000000000000000000001000000000000000000000000000000000000000000000000000000000000000000000000000000000000008000000000000000000000000000000000000",
      "type": "0x0",
      "effectiveGasPrice": "0x59682f64"
    },
    {
      "transactionHash": "0xd893d65cc87b7775e22b0abba9f0ad8abfd9119d17e8a3c3265224e7c1400014",
      "transactionIndex": "0x1",
      "blockHash": "0xb4dfa8d59e99220686eae20f69b2ac9ede71db54d4e776d6feb1a83467e6bdf4",
      "blockNumber": "0x802ecb",
      "from": "0x1De380594dE7ABA6442D879713c86Ba7395abE7B",
      "to": "0x653d3CBa5fabc246946c0C393Ce89e862DADd3bf",
      "cumulativeGasUsed": "0x28a0b",
      "gasUsed": "0x1d2fa",
      "contractAddress": null,
      "logs": [
        {
          "address": "0x653d3CBa5fabc246946c0C393Ce89e862DADd3bf",
          "topics": [
            "0x120ed5e733cc0dd8ace773ccaa200600da5cd3282021a6770067f439de80615e"
          ],
          "data": "0x00000000000000000000000000000000000000000000000000000000000000050000000000000000000000007c3ba47e39741b37f6093b1c2e534f1e84c0b36b00000000000000000000000059992e3626d6d5471d676f2de5a6e6dcf0e06de7",
          "blockHash": "0xb4dfa8d59e99220686eae20f69b2ac9ede71db54d4e776d6feb1a83467e6bdf4",
          "blockNumber": "0x802ecb",
          "transactionHash": "0xd893d65cc87b7775e22b0abba9f0ad8abfd9119d17e8a3c3265224e7c1400014",
          "transactionIndex": "0x1",
          "logIndex": "0x0",
          "removed": false
        },
        {
          "address": "0x653d3CBa5fabc246946c0C393Ce89e862DADd3bf",
          "topics": [
            "0xde702a3afda93461efb92f10ed3cdd0d0df3d292af2fc9dd64628e5f31a1901d"
          ],
          "data": "0x000000000000000000000000000000000000000000000000000000000000000500000000000000000000000000000000000000000000000000000000000000320000000000000000000000000000000000000000000000000000000000000032",
          "blockHash": "0xb4dfa8d59e99220686eae20f69b2ac9ede71db54d4e776d6feb1a83467e6bdf4",
          "blockNumber": "0x802ecb",
          "transactionHash": "0xd893d65cc87b7775e22b0abba9f0ad8abfd9119d17e8a3c3265224e7c1400014",
          "transactionIndex": "0x1",
          "logIndex": "0x1",
          "removed": false
        }
      ],
      "status": "0x1",
      "logsBloom": "0x00000000000000000000000000000000200000000000000000000000000000002000000000000000000000000000000000000000000000000000000000000008000000000000000000000000000000000000000000000000000000000000000000000000040000000000000000000000000000000020000000000000000000000000000000000000000000000000000000000000000000000000000000000000400000000000000000000000000000000000000004000000000000000000000000001000000000000000000000000000000000000000000000000000000000000000000000000000000000000008000000000000000000000000000000000000",
      "type": "0x0",
      "effectiveGasPrice": "0x59682f64"
    },
    {
      "transactionHash": "0x068e88f57f42c86ef48cfcd51b2e1c4fac92504b22a26ffab53801f30f516fa0",
      "transactionIndex": "0x1",
      "blockHash": "0x661d636da399bb39e5cd0c699f0f51d6724ab45cd62225fa993e80ed2995ec3c",
      "blockNumber": "0x802ecf",
      "from": "0x1De380594dE7ABA6442D879713c86Ba7395abE7B",
      "to": "0x653d3CBa5fabc246946c0C393Ce89e862DADd3bf",
      "cumulativeGasUsed": "0x28a0b",
      "gasUsed": "0x1d2fa",
      "contractAddress": null,
      "logs": [
        {
          "address": "0x653d3CBa5fabc246946c0C393Ce89e862DADd3bf",
          "topics": [
            "0x120ed5e733cc0dd8ace773ccaa200600da5cd3282021a6770067f439de80615e"
          ],
          "data": "0x00000000000000000000000000000000000000000000000000000000000000060000000000000000000000007c3ba47e39741b37f6093b1c2e534f1e84c0b36b00000000000000000000000059992e3626d6d5471d676f2de5a6e6dcf0e06de7",
          "blockHash": "0x661d636da399bb39e5cd0c699f0f51d6724ab45cd62225fa993e80ed2995ec3c",
          "blockNumber": "0x802ecf",
          "transactionHash": "0x068e88f57f42c86ef48cfcd51b2e1c4fac92504b22a26ffab53801f30f516fa0",
          "transactionIndex": "0x1",
          "logIndex": "0x0",
          "removed": false
        },
        {
          "address": "0x653d3CBa5fabc246946c0C393Ce89e862DADd3bf",
          "topics": [
            "0xde702a3afda93461efb92f10ed3cdd0d0df3d292af2fc9dd64628e5f31a1901d"
          ],
          "data": "0x000000000000000000000000000000000000000000000000000000000000000600000000000000000000000000000000000000000000000000000000000000320000000000000000000000000000000000000000000000000000000000000032",
          "blockHash": "0x661d636da399bb39e5cd0c699f0f51d6724ab45cd62225fa993e80ed2995ec3c",
          "blockNumber": "0x802ecf",
          "transactionHash": "0x068e88f57f42c86ef48cfcd51b2e1c4fac92504b22a26ffab53801f30f516fa0",
          "transactionIndex": "0x1",
          "logIndex": "0x1",
          "removed": false
        }
      ],
      "status": "0x1",
      "logsBloom": "0x00000000000000000000000000000000200000000000000000000000000000002000000000000000000000000000000000000000000000000000000000000008000000000000000000000000000000000000000000000000000000000000000000000000040000000000000000000000000000000020000000000000000000000000000000000000000000000000000000000000000000000000000000000000400000000000000000000000000000000000000004000000000000000000000000001000000000000000000000000000000000000000000000000000000000000000000000000000000000000008000000000000000000000000000000000000",
      "type": "0x0",
      "effectiveGasPrice": "0x59682f64"
    },
    {
      "transactionHash": "0xfc6404ba342673560f91ba07ab68f4428181c2b57e886f4f989cf8419e92cfa4",
      "transactionIndex": "0x1",
      "blockHash": "0x2a62053ff0ed01dec3a21a55e75145a261eeb5647c8e3e600028009a6ff1c16e",
      "blockNumber": "0x802ed3",
      "from": "0x1De380594dE7ABA6442D879713c86Ba7395abE7B",
      "to": "0x653d3CBa5fabc246946c0C393Ce89e862DADd3bf",
      "cumulativeGasUsed": "0x28a0b",
      "gasUsed": "0x1d2fa",
      "contractAddress": null,
      "logs": [
        {
          "address": "0x653d3CBa5fabc246946c0C393Ce89e862DADd3bf",
          "topics": [
            "0x120ed5e733cc0dd8ace773ccaa200600da5cd3282021a6770067f439de80615e"
          ],
          "data": "0x00000000000000000000000000000000000000000000000000000000000000070000000000000000000000007c3ba47e39741b37f6093b1c2e534f1e84c0b36b00000000000000000000000059992e3626d6d5471d676f2de5a6e6dcf0e06de7",
          "blockHash": "0x2a62053ff0ed01dec3a21a55e75145a261eeb5647c8e3e600028009a6ff1c16e",
          "blockNumber": "0x802ed3",
          "transactionHash": "0xfc6404ba342673560f91ba07ab68f4428181c2b57e886f4f989cf8419e92cfa4",
          "transactionIndex": "0x1",
          "logIndex": "0x0",
          "removed": false
        },
        {
          "address": "0x653d3CBa5fabc246946c0C393Ce89e862DADd3bf",
          "topics": [
            "0xde702a3afda93461efb92f10ed3cdd0d0df3d292af2fc9dd64628e5f31a1901d"
          ],
          "data": "0x000000000000000000000000000000000000000000000000000000000000000700000000000000000000000000000000000000000000000000000000000000320000000000000000000000000000000000000000000000000000000000000032",
          "blockHash": "0x2a62053ff0ed01dec3a21a55e75145a261eeb5647c8e3e600028009a6ff1c16e",
          "blockNumber": "0x802ed3",
          "transactionHash": "0xfc6404ba342673560f91ba07ab68f4428181c2b57e886f4f989cf8419e92cfa4",
          "transactionIndex": "0x1",
          "logIndex": "0x1",
          "removed": false
        }
      ],
      "status": "0x1",
      "logsBloom": "0x00000000000000000000000000000000200000000000000000000000000000002000000000000000000000000000000000000000000000000000000000000008000000000000000000000000000000000000000000000000000000000000000000000000040000000000000000000000000000000020000000000000000000000000000000000000000000000000000000000000000000000000000000000000400000000000000000000000000000000000000004000000000000000000000000001000000000000000000000000000000000000000000000000000000000000000000000000000000000000008000000000000000000000000000000000000",
      "type": "0x0",
      "effectiveGasPrice": "0x59682f64"
    },
    {
      "transactionHash": "0x661e54c98e791e74025ae623e3f48c49bb6a1091caa14e7b0608d6390e22b3c2",
      "transactionIndex": "0x2",
      "blockHash": "0x9cd308a8d958acb23e1865f88488a50416b48aacb4e3196e05b70cdd6def7f9a",
      "blockNumber": "0x802ed6",
      "from": "0x1De380594dE7ABA6442D879713c86Ba7395abE7B",
      "to": "0x653d3CBa5fabc246946c0C393Ce89e862DADd3bf",
      "cumulativeGasUsed": "0x50374",
      "gasUsed": "0x1d2fa",
      "contractAddress": null,
      "logs": [
        {
          "address": "0x653d3CBa5fabc246946c0C393Ce89e862DADd3bf",
          "topics": [
            "0x120ed5e733cc0dd8ace773ccaa200600da5cd3282021a6770067f439de80615e"
          ],
          "data": "0x00000000000000000000000000000000000000000000000000000000000000080000000000000000000000007c3ba47e39741b37f6093b1c2e534f1e84c0b36b00000000000000000000000059992e3626d6d5471d676f2de5a6e6dcf0e06de7",
          "blockHash": "0x9cd308a8d958acb23e1865f88488a50416b48aacb4e3196e05b70cdd6def7f9a",
          "blockNumber": "0x802ed6",
          "transactionHash": "0x661e54c98e791e74025ae623e3f48c49bb6a1091caa14e7b0608d6390e22b3c2",
          "transactionIndex": "0x2",
          "logIndex": "0x2",
          "removed": false
        },
        {
          "address": "0x653d3CBa5fabc246946c0C393Ce89e862DADd3bf",
          "topics": [
            "0xde702a3afda93461efb92f10ed3cdd0d0df3d292af2fc9dd64628e5f31a1901d"
          ],
          "data": "0x000000000000000000000000000000000000000000000000000000000000000800000000000000000000000000000000000000000000000000000000000000320000000000000000000000000000000000000000000000000000000000000032",
          "blockHash": "0x9cd308a8d958acb23e1865f88488a50416b48aacb4e3196e05b70cdd6def7f9a",
          "blockNumber": "0x802ed6",
          "transactionHash": "0x661e54c98e791e74025ae623e3f48c49bb6a1091caa14e7b0608d6390e22b3c2",
          "transactionIndex": "0x2",
          "logIndex": "0x3",
          "removed": false
        }
      ],
      "status": "0x1",
      "logsBloom": "0x00000000000000000000000000000000200000000000000000000000000000002000000000000000000000000000000000000000000000000000000000000008000000000000000000000000000000000000000000000000000000000000000000000000040000000000000000000000000000000020000000000000000000000000000000000000000000000000000000000000000000000000000000000000400000000000000000000000000000000000000004000000000000000000000000001000000000000000000000000000000000000000000000000000000000000000000000000000000000000008000000000000000000000000000000000000",
      "type": "0x0",
      "effectiveGasPrice": "0x59682f64"
    },
    {
      "transactionHash": "0x3b6b1573adb47659e4cca17030f043b8a81e32d6d06fd45cc0ac61caae9fbd68",
      "transactionIndex": "0x1",
      "blockHash": "0x62192c3793b7146c70f9b09543f451a725131e6f02796198699d7bafb3a5af71",
      "blockNumber": "0x802edb",
      "from": "0x1De380594dE7ABA6442D879713c86Ba7395abE7B",
      "to": "0x653d3CBa5fabc246946c0C393Ce89e862DADd3bf",
      "cumulativeGasUsed": "0x28a0b",
      "gasUsed": "0x1d2fa",
      "contractAddress": null,
      "logs": [
        {
          "address": "0x653d3CBa5fabc246946c0C393Ce89e862DADd3bf",
          "topics": [
            "0x120ed5e733cc0dd8ace773ccaa200600da5cd3282021a6770067f439de80615e"
          ],
          "data": "0x00000000000000000000000000000000000000000000000000000000000000090000000000000000000000007c3ba47e39741b37f6093b1c2e534f1e84c0b36b00000000000000000000000059992e3626d6d5471d676f2de5a6e6dcf0e06de7",
          "blockHash": "0x62192c3793b7146c70f9b09543f451a725131e6f02796198699d7bafb3a5af71",
          "blockNumber": "0x802edb",
          "transactionHash": "0x3b6b1573adb47659e4cca17030f043b8a81e32d6d06fd45cc0ac61caae9fbd68",
          "transactionIndex": "0x1",
          "logIndex": "0x0",
          "removed": false
        },
        {
          "address": "0x653d3CBa5fabc246946c0C393Ce89e862DADd3bf",
          "topics": [
            "0xde702a3afda93461efb92f10ed3cdd0d0df3d292af2fc9dd64628e5f31a1901d"
          ],
          "data": "0x000000000000000000000000000000000000000000000000000000000000000900000000000000000000000000000000000000000000000000000000000000320000000000000000000000000000000000000000000000000000000000000032",
          "blockHash": "0x62192c3793b7146c70f9b09543f451a725131e6f02796198699d7bafb3a5af71",
          "blockNumber": "0x802edb",
          "transactionHash": "0x3b6b1573adb47659e4cca17030f043b8a81e32d6d06fd45cc0ac61caae9fbd68",
          "transactionIndex": "0x1",
          "logIndex": "0x1",
          "removed": false
        }
      ],
      "status": "0x1",
      "logsBloom": "0x00000000000000000000000000000000200000000000000000000000000000002000000000000000000000000000000000000000000000000000000000000008000000000000000000000000000000000000000000000000000000000000000000000000040000000000000000000000000000000020000000000000000000000000000000000000000000000000000000000000000000000000000000000000400000000000000000000000000000000000000004000000000000000000000000001000000000000000000000000000000000000000000000000000000000000000000000000000000000000008000000000000000000000000000000000000",
      "type": "0x0",
      "effectiveGasPrice": "0x59682f64"
    },
    {
      "transactionHash": "0xec2e432487f58c3dfb12cc3401141c3afd774dab3f65c0bace986fa41d51e9d3",
      "transactionIndex": "0x1",
      "blockHash": "0x746bc77b2c9104ca2d6047fa35aef486f88ce36d6667d4e4840d70d6c96fff1b",
      "blockNumber": "0x802ede",
      "from": "0x1De380594dE7ABA6442D879713c86Ba7395abE7B",
      "to": "0x653d3CBa5fabc246946c0C393Ce89e862DADd3bf",
      "cumulativeGasUsed": "0x2cccb",
      "gasUsed": "0x1d2fa",
      "contractAddress": null,
      "logs": [
        {
          "address": "0x653d3CBa5fabc246946c0C393Ce89e862DADd3bf",
          "topics": [
            "0x120ed5e733cc0dd8ace773ccaa200600da5cd3282021a6770067f439de80615e"
          ],
          "data": "0x000000000000000000000000000000000000000000000000000000000000000a0000000000000000000000007c3ba47e39741b37f6093b1c2e534f1e84c0b36b00000000000000000000000059992e3626d6d5471d676f2de5a6e6dcf0e06de7",
          "blockHash": "0x746bc77b2c9104ca2d6047fa35aef486f88ce36d6667d4e4840d70d6c96fff1b",
          "blockNumber": "0x802ede",
          "transactionHash": "0xec2e432487f58c3dfb12cc3401141c3afd774dab3f65c0bace986fa41d51e9d3",
          "transactionIndex": "0x1",
          "logIndex": "0x0",
          "removed": false
        },
        {
          "address": "0x653d3CBa5fabc246946c0C393Ce89e862DADd3bf",
          "topics": [
            "0xde702a3afda93461efb92f10ed3cdd0d0df3d292af2fc9dd64628e5f31a1901d"
          ],
          "data": "0x000000000000000000000000000000000000000000000000000000000000000a00000000000000000000000000000000000000000000000000000000000000320000000000000000000000000000000000000000000000000000000000000032",
          "blockHash": "0x746bc77b2c9104ca2d6047fa35aef486f88ce36d6667d4e4840d70d6c96fff1b",
          "blockNumber": "0x802ede",
          "transactionHash": "0xec2e432487f58c3dfb12cc3401141c3afd774dab3f65c0bace986fa41d51e9d3",
          "transactionIndex": "0x1",
          "logIndex": "0x1",
          "removed": false
        }
      ],
      "status": "0x1",
      "logsBloom": "0x00000000000000000000000000000000200000000000000000000000000000002000000000000000000000000000000000000000000000000000000000000008000000000000000000000000000000000000000000000000000000000000000000000000040000000000000000000000000000000020000000000000000000000000000000000000000000000000000000000000000000000000000000000000400000000000000000000000000000000000000004000000000000000000000000001000000000000000000000000000000000000000000000000000000000000000000000000000000000000008000000000000000000000000000000000000",
      "type": "0x0",
      "effectiveGasPrice": "0x59682f64"
    },
    {
      "transactionHash": "0xef35f4429d104711bc9810755bbf507d11d923392aad3ce55ec068fdca2e3723",
      "transactionIndex": "0x1",
      "blockHash": "0x6f5f640bba440deee4c01ce15fdaf1cebad302e369a1e860613b385c273b0253",
      "blockNumber": "0x802ee2",
      "from": "0x1De380594dE7ABA6442D879713c86Ba7395abE7B",
      "to": "0x653d3CBa5fabc246946c0C393Ce89e862DADd3bf",
      "cumulativeGasUsed": "0x289ff",
      "gasUsed": "0x1d2fa",
      "contractAddress": null,
      "logs": [
        {
          "address": "0x653d3CBa5fabc246946c0C393Ce89e862DADd3bf",
          "topics": [
            "0x120ed5e733cc0dd8ace773ccaa200600da5cd3282021a6770067f439de80615e"
          ],
          "data": "0x000000000000000000000000000000000000000000000000000000000000000b0000000000000000000000007c3ba47e39741b37f6093b1c2e534f1e84c0b36b00000000000000000000000059992e3626d6d5471d676f2de5a6e6dcf0e06de7",
          "blockHash": "0x6f5f640bba440deee4c01ce15fdaf1cebad302e369a1e860613b385c273b0253",
          "blockNumber": "0x802ee2",
          "transactionHash": "0xef35f4429d104711bc9810755bbf507d11d923392aad3ce55ec068fdca2e3723",
          "transactionIndex": "0x1",
          "logIndex": "0x0",
          "removed": false
        },
        {
          "address": "0x653d3CBa5fabc246946c0C393Ce89e862DADd3bf",
          "topics": [
            "0xde702a3afda93461efb92f10ed3cdd0d0df3d292af2fc9dd64628e5f31a1901d"
          ],
          "data": "0x000000000000000000000000000000000000000000000000000000000000000b00000000000000000000000000000000000000000000000000000000000000320000000000000000000000000000000000000000000000000000000000000032",
          "blockHash": "0x6f5f640bba440deee4c01ce15fdaf1cebad302e369a1e860613b385c273b0253",
          "blockNumber": "0x802ee2",
          "transactionHash": "0xef35f4429d104711bc9810755bbf507d11d923392aad3ce55ec068fdca2e3723",
          "transactionIndex": "0x1",
          "logIndex": "0x1",
          "removed": false
        }
      ],
      "status": "0x1",
      "logsBloom": "0x00000000000000000000000000000000200000000000000000000000000000002000000000000000000000000000000000000000000000000000000000000008000000000000000000000000000000000000000000000000000000000000000000000000040000000000000000000000000000000020000000000000000000000000000000000000000000000000000000000000000000000000000000000000400000000000000000000000000000000000000004000000000000000000000000001000000000000000000000000000000000000000000000000000000000000000000000000000000000000008000000000000000000000000000000000000",
      "type": "0x0",
      "effectiveGasPrice": "0x59682f64"
    },
    {
      "transactionHash": "0x745f7f6dc7404b5bf56eb7b5e54a954aed1e7fbd8d49beb597f98843c122f8dd",
      "transactionIndex": "0x1",
      "blockHash": "0x534d57fbc9b3ea9fa0282e27ac126944472a0ce8177e53869a0ff4701b9299d0",
      "blockNumber": "0x802ee5",
      "from": "0x1De380594dE7ABA6442D879713c86Ba7395abE7B",
      "to": "0x653d3CBa5fabc246946c0C393Ce89e862DADd3bf",
      "cumulativeGasUsed": "0x289ff",
      "gasUsed": "0x1d2fa",
      "contractAddress": null,
      "logs": [
        {
          "address": "0x653d3CBa5fabc246946c0C393Ce89e862DADd3bf",
          "topics": [
            "0x120ed5e733cc0dd8ace773ccaa200600da5cd3282021a6770067f439de80615e"
          ],
          "data": "0x000000000000000000000000000000000000000000000000000000000000000c0000000000000000000000007c3ba47e39741b37f6093b1c2e534f1e84c0b36b00000000000000000000000059992e3626d6d5471d676f2de5a6e6dcf0e06de7",
          "blockHash": "0x534d57fbc9b3ea9fa0282e27ac126944472a0ce8177e53869a0ff4701b9299d0",
          "blockNumber": "0x802ee5",
          "transactionHash": "0x745f7f6dc7404b5bf56eb7b5e54a954aed1e7fbd8d49beb597f98843c122f8dd",
          "transactionIndex": "0x1",
          "logIndex": "0x0",
          "removed": false
        },
        {
          "address": "0x653d3CBa5fabc246946c0C393Ce89e862DADd3bf",
          "topics": [
            "0xde702a3afda93461efb92f10ed3cdd0d0df3d292af2fc9dd64628e5f31a1901d"
          ],
          "data": "0x000000000000000000000000000000000000000000000000000000000000000c00000000000000000000000000000000000000000000000000000000000000320000000000000000000000000000000000000000000000000000000000000032",
          "blockHash": "0x534d57fbc9b3ea9fa0282e27ac126944472a0ce8177e53869a0ff4701b9299d0",
          "blockNumber": "0x802ee5",
          "transactionHash": "0x745f7f6dc7404b5bf56eb7b5e54a954aed1e7fbd8d49beb597f98843c122f8dd",
          "transactionIndex": "0x1",
          "logIndex": "0x1",
          "removed": false
        }
      ],
      "status": "0x1",
      "logsBloom": "0x00000000000000000000000000000000200000000000000000000000000000002000000000000000000000000000000000000000000000000000000000000008000000000000000000000000000000000000000000000000000000000000000000000000040000000000000000000000000000000020000000000000000000000000000000000000000000000000000000000000000000000000000000000000400000000000000000000000000000000000000004000000000000000000000000001000000000000000000000000000000000000000000000000000000000000000000000000000000000000008000000000000000000000000000000000000",
      "type": "0x0",
      "effectiveGasPrice": "0x59682f64"
    },
    {
      "transactionHash": "0x19354fe1b2200445cf885e83d4399d766274405c4443a208a16cebedc4556a61",
      "transactionIndex": "0x1",
      "blockHash": "0x2af81aef2e8a16a46d2da4ff7ce8359fe87eda8ae1a96808fccfac38099c4ef5",
      "blockNumber": "0x802ee9",
      "from": "0x1De380594dE7ABA6442D879713c86Ba7395abE7B",
      "to": "0x653d3CBa5fabc246946c0C393Ce89e862DADd3bf",
      "cumulativeGasUsed": "0x28d1f",
      "gasUsed": "0x1d2fa",
      "contractAddress": null,
      "logs": [
        {
          "address": "0x653d3CBa5fabc246946c0C393Ce89e862DADd3bf",
          "topics": [
            "0x120ed5e733cc0dd8ace773ccaa200600da5cd3282021a6770067f439de80615e"
          ],
          "data": "0x000000000000000000000000000000000000000000000000000000000000000d0000000000000000000000007c3ba47e39741b37f6093b1c2e534f1e84c0b36b00000000000000000000000059992e3626d6d5471d676f2de5a6e6dcf0e06de7",
          "blockHash": "0x2af81aef2e8a16a46d2da4ff7ce8359fe87eda8ae1a96808fccfac38099c4ef5",
          "blockNumber": "0x802ee9",
          "transactionHash": "0x19354fe1b2200445cf885e83d4399d766274405c4443a208a16cebedc4556a61",
          "transactionIndex": "0x1",
          "logIndex": "0x0",
          "removed": false
        },
        {
          "address": "0x653d3CBa5fabc246946c0C393Ce89e862DADd3bf",
          "topics": [
            "0xde702a3afda93461efb92f10ed3cdd0d0df3d292af2fc9dd64628e5f31a1901d"
          ],
          "data": "0x000000000000000000000000000000000000000000000000000000000000000d00000000000000000000000000000000000000000000000000000000000000320000000000000000000000000000000000000000000000000000000000000032",
          "blockHash": "0x2af81aef2e8a16a46d2da4ff7ce8359fe87eda8ae1a96808fccfac38099c4ef5",
          "blockNumber": "0x802ee9",
          "transactionHash": "0x19354fe1b2200445cf885e83d4399d766274405c4443a208a16cebedc4556a61",
          "transactionIndex": "0x1",
          "logIndex": "0x1",
          "removed": false
        }
      ],
      "status": "0x1",
      "logsBloom": "0x00000000000000000000000000000000200000000000000000000000000000002000000000000000000000000000000000000000000000000000000000000008000000000000000000000000000000000000000000000000000000000000000000000000040000000000000000000000000000000020000000000000000000000000000000000000000000000000000000000000000000000000000000000000400000000000000000000000000000000000000004000000000000000000000000001000000000000000000000000000000000000000000000000000000000000000000000000000000000000008000000000000000000000000000000000000",
      "type": "0x0",
      "effectiveGasPrice": "0x59682f64"
    },
    {
      "transactionHash": "0xfd7a6ed75ef3ba55bab6a971476b13cc905719d16d56b271436ee96b54e78b5e",
      "transactionIndex": "0x1",
      "blockHash": "0xbfd4462e6567fd66b28ccf8817524f9503bef456c91455203e0d30ebef95f78f",
      "blockNumber": "0x802eed",
      "from": "0x1De380594dE7ABA6442D879713c86Ba7395abE7B",
      "to": "0x653d3CBa5fabc246946c0C393Ce89e862DADd3bf",
      "cumulativeGasUsed": "0x28a0b",
      "gasUsed": "0x1d2fa",
      "contractAddress": null,
      "logs": [
        {
          "address": "0x653d3CBa5fabc246946c0C393Ce89e862DADd3bf",
          "topics": [
            "0x120ed5e733cc0dd8ace773ccaa200600da5cd3282021a6770067f439de80615e"
          ],
          "data": "0x000000000000000000000000000000000000000000000000000000000000000e0000000000000000000000007c3ba47e39741b37f6093b1c2e534f1e84c0b36b00000000000000000000000059992e3626d6d5471d676f2de5a6e6dcf0e06de7",
          "blockHash": "0xbfd4462e6567fd66b28ccf8817524f9503bef456c91455203e0d30ebef95f78f",
          "blockNumber": "0x802eed",
          "transactionHash": "0xfd7a6ed75ef3ba55bab6a971476b13cc905719d16d56b271436ee96b54e78b5e",
          "transactionIndex": "0x1",
          "logIndex": "0x0",
          "removed": false
        },
        {
          "address": "0x653d3CBa5fabc246946c0C393Ce89e862DADd3bf",
          "topics": [
            "0xde702a3afda93461efb92f10ed3cdd0d0df3d292af2fc9dd64628e5f31a1901d"
          ],
          "data": "0x000000000000000000000000000000000000000000000000000000000000000e00000000000000000000000000000000000000000000000000000000000000320000000000000000000000000000000000000000000000000000000000000032",
          "blockHash": "0xbfd4462e6567fd66b28ccf8817524f9503bef456c91455203e0d30ebef95f78f",
          "blockNumber": "0x802eed",
          "transactionHash": "0xfd7a6ed75ef3ba55bab6a971476b13cc905719d16d56b271436ee96b54e78b5e",
          "transactionIndex": "0x1",
          "logIndex": "0x1",
          "removed": false
        }
      ],
      "status": "0x1",
      "logsBloom": "0x00000000000000000000000000000000200000000000000000000000000000002000000000000000000000000000000000000000000000000000000000000008000000000000000000000000000000000000000000000000000000000000000000000000040000000000000000000000000000000020000000000000000000000000000000000000000000000000000000000000000000000000000000000000400000000000000000000000000000000000000004000000000000000000000000001000000000000000000000000000000000000000000000000000000000000000000000000000000000000008000000000000000000000000000000000000",
      "type": "0x0",
      "effectiveGasPrice": "0x59682f64"
    },
    {
      "transactionHash": "0xfa284b61ca4ffd37900d49e2ff206002e43afe591b4da65ad69c758227086de2",
      "transactionIndex": "0x2",
      "blockHash": "0xa0431aaa2d38e85b597de266714a4a68db42dfbce741a429215b4a2ebdfef42b",
      "blockNumber": "0x802ef1",
      "from": "0x1De380594dE7ABA6442D879713c86Ba7395abE7B",
      "to": "0x653d3CBa5fabc246946c0C393Ce89e862DADd3bf",
      "cumulativeGasUsed": "0x41bc2",
      "gasUsed": "0x1d2fa",
      "contractAddress": null,
      "logs": [
        {
          "address": "0x653d3CBa5fabc246946c0C393Ce89e862DADd3bf",
          "topics": [
            "0x120ed5e733cc0dd8ace773ccaa200600da5cd3282021a6770067f439de80615e"
          ],
          "data": "0x000000000000000000000000000000000000000000000000000000000000000f0000000000000000000000007c3ba47e39741b37f6093b1c2e534f1e84c0b36b00000000000000000000000059992e3626d6d5471d676f2de5a6e6dcf0e06de7",
          "blockHash": "0xa0431aaa2d38e85b597de266714a4a68db42dfbce741a429215b4a2ebdfef42b",
          "blockNumber": "0x802ef1",
          "transactionHash": "0xfa284b61ca4ffd37900d49e2ff206002e43afe591b4da65ad69c758227086de2",
          "transactionIndex": "0x2",
          "logIndex": "0x2",
          "removed": false
        },
        {
          "address": "0x653d3CBa5fabc246946c0C393Ce89e862DADd3bf",
          "topics": [
            "0xde702a3afda93461efb92f10ed3cdd0d0df3d292af2fc9dd64628e5f31a1901d"
          ],
          "data": "0x000000000000000000000000000000000000000000000000000000000000000f00000000000000000000000000000000000000000000000000000000000000320000000000000000000000000000000000000000000000000000000000000032",
          "blockHash": "0xa0431aaa2d38e85b597de266714a4a68db42dfbce741a429215b4a2ebdfef42b",
          "blockNumber": "0x802ef1",
          "transactionHash": "0xfa284b61ca4ffd37900d49e2ff206002e43afe591b4da65ad69c758227086de2",
          "transactionIndex": "0x2",
          "logIndex": "0x3",
          "removed": false
        }
      ],
      "status": "0x1",
      "logsBloom": "0x00000000000000000000000000000000200000000000000000000000000000002000000000000000000000000000000000000000000000000000000000000008000000000000000000000000000000000000000000000000000000000000000000000000040000000000000000000000000000000020000000000000000000000000000000000000000000000000000000000000000000000000000000000000400000000000000000000000000000000000000004000000000000000000000000001000000000000000000000000000000000000000000000000000000000000000000000000000000000000008000000000000000000000000000000000000",
      "type": "0x0",
      "effectiveGasPrice": "0x59682f64"
    },
    {
      "transactionHash": "0x5bd189aa19f7d04fe1b3558ffb4c0284d139c74af5adbea0dd71b7eb3a239b78",
      "transactionIndex": "0x1",
      "blockHash": "0x481537f36e7392cbba0c731bc3fae785adbe5b3d4153eb4b254171f606927620",
      "blockNumber": "0x802ef4",
      "from": "0x1De380594dE7ABA6442D879713c86Ba7395abE7B",
      "to": "0x653d3CBa5fabc246946c0C393Ce89e862DADd3bf",
      "cumulativeGasUsed": "0x2d2b3",
      "gasUsed": "0x21bae",
      "contractAddress": null,
      "logs": [],
      "status": "0x1",
      "logsBloom": "0x00000000000000000000000000000000000000000000000000000000000000000000000000000000000000000000000000000000000000000000000000000000000000000000000000000000000000000000000000000000000000000000000000000000000000000000000000000000000000000000000000000000000000000000000000000000000000000000000000000000000000000000000000000000000000000000000000000000000000000000000000000000000000000000000000000000000000000000000000000000000000000000000000000000000000000000000000000000000000000000000000000000000000000000000000000000",
      "type": "0x0",
      "effectiveGasPrice": "0x59682f64"
    },
    {
      "transactionHash": "0x2888810803bd3b7f6efe82e88b05bd5a83553ad74bc7960357aa623f1dcbf564",
      "transactionIndex": "0x1",
      "blockHash": "0xece666b727548234d7bde09bf2f274af9237a402a78af23807c7d24f8c41ee8d",
      "blockNumber": "0x802ef8",
      "from": "0x1De380594dE7ABA6442D879713c86Ba7395abE7B",
      "to": "0x653d3CBa5fabc246946c0C393Ce89e862DADd3bf",
      "cumulativeGasUsed": "0x2231f",
      "gasUsed": "0x16c0e",
      "contractAddress": null,
      "logs": [],
      "status": "0x1",
      "logsBloom": "0x00000000000000000000000000000000000000000000000000000000000000000000000000000000000000000000000000000000000000000000000000000000000000000000000000000000000000000000000000000000000000000000000000000000000000000000000000000000000000000000000000000000000000000000000000000000000000000000000000000000000000000000000000000000000000000000000000000000000000000000000000000000000000000000000000000000000000000000000000000000000000000000000000000000000000000000000000000000000000000000000000000000000000000000000000000000",
      "type": "0x0",
      "effectiveGasPrice": "0x59682f64"
    },
    {
      "transactionHash": "0x869f2b24f5602088ddf2fb5799a21c9f7ed51cba6bea6d1dff08f33caf6f418c",
      "transactionIndex": "0x1",
      "blockHash": "0xc156d14c0df600250d90bb3bc49793e0c609f9226e2f5d8c2ec03a1b772f0a9e",
      "blockNumber": "0x802efc",
      "from": "0x1De380594dE7ABA6442D879713c86Ba7395abE7B",
      "to": "0x653d3CBa5fabc246946c0C393Ce89e862DADd3bf",
      "cumulativeGasUsed": "0x2664b",
      "gasUsed": "0x16c6e",
      "contractAddress": null,
      "logs": [],
      "status": "0x1",
      "logsBloom": "0x00000000000000000000000000000000000000000000000000000000000000000000000000000000000000000000000000000000000000000000000000000000000000000000000000000000000000000000000000000000000000000000000000000000000000000000000000000000000000000000000000000000000000000000000000000000000000000000000000000000000000000000000000000000000000000000000000000000000000000000000000000000000000000000000000000000000000000000000000000000000000000000000000000000000000000000000000000000000000000000000000000000000000000000000000000000",
      "type": "0x0",
      "effectiveGasPrice": "0x59682f64"
    },
    {
      "transactionHash": "0x1202da4012e0607a38c3d4da6e98b90bb841e8eb5c768947197c9c37383fbeb4",
      "transactionIndex": "0x1",
      "blockHash": "0xe0edbe5a8703a38b9668fe75b94984c2cbb34edd37f78bc64b3440bf9cd51feb",
      "blockNumber": "0x802eff",
      "from": "0x1De380594dE7ABA6442D879713c86Ba7395abE7B",
      "to": "0x653d3CBa5fabc246946c0C393Ce89e862DADd3bf",
      "cumulativeGasUsed": "0x22307",
      "gasUsed": "0x16bf6",
      "contractAddress": null,
      "logs": [],
      "status": "0x1",
      "logsBloom": "0x00000000000000000000000000000000000000000000000000000000000000000000000000000000000000000000000000000000000000000000000000000000000000000000000000000000000000000000000000000000000000000000000000000000000000000000000000000000000000000000000000000000000000000000000000000000000000000000000000000000000000000000000000000000000000000000000000000000000000000000000000000000000000000000000000000000000000000000000000000000000000000000000000000000000000000000000000000000000000000000000000000000000000000000000000000000",
      "type": "0x0",
      "effectiveGasPrice": "0x59682f64"
    },
    {
      "transactionHash": "0xe33101447e0ccfa12d8b1f650c5f810fab58f41d3888ea0f5b9d7b7820286d8c",
      "transactionIndex": "0x1",
      "blockHash": "0xf8f1996a879a2beace49170548bb8811a0d016994b4c2372d16fde18cab7da9e",
      "blockNumber": "0x802f03",
      "from": "0x1De380594dE7ABA6442D879713c86Ba7395abE7B",
      "to": "0x653d3CBa5fabc246946c0C393Ce89e862DADd3bf",
      "cumulativeGasUsed": "0x22343",
      "gasUsed": "0x16c32",
      "contractAddress": null,
      "logs": [],
      "status": "0x1",
      "logsBloom": "0x00000000000000000000000000000000000000000000000000000000000000000000000000000000000000000000000000000000000000000000000000000000000000000000000000000000000000000000000000000000000000000000000000000000000000000000000000000000000000000000000000000000000000000000000000000000000000000000000000000000000000000000000000000000000000000000000000000000000000000000000000000000000000000000000000000000000000000000000000000000000000000000000000000000000000000000000000000000000000000000000000000000000000000000000000000000",
      "type": "0x0",
      "effectiveGasPrice": "0x59682f64"
    },
    {
      "transactionHash": "0x7397c7dae6c5aebff8216a4b3b6c11ab34910df04edd088512d1c2b45c1e738e",
      "transactionIndex": "0x1",
      "blockHash": "0x134478b0c68f4126e4efc6efb2f8fe5034d527ddeede970b16a15c8cce7b0d74",
      "blockNumber": "0x802f06",
      "from": "0x1De380594dE7ABA6442D879713c86Ba7395abE7B",
      "to": "0x653d3CBa5fabc246946c0C393Ce89e862DADd3bf",
      "cumulativeGasUsed": "0x22373",
      "gasUsed": "0x16c62",
      "contractAddress": null,
      "logs": [],
      "status": "0x1",
      "logsBloom": "0x00000000000000000000000000000000000000000000000000000000000000000000000000000000000000000000000000000000000000000000000000000000000000000000000000000000000000000000000000000000000000000000000000000000000000000000000000000000000000000000000000000000000000000000000000000000000000000000000000000000000000000000000000000000000000000000000000000000000000000000000000000000000000000000000000000000000000000000000000000000000000000000000000000000000000000000000000000000000000000000000000000000000000000000000000000000",
      "type": "0x0",
      "effectiveGasPrice": "0x59682f64"
    },
    {
      "transactionHash": "0x9e13d65590a5e165bc797698acc3b71afd1ac00b6ae7a0c24c8af5478f0962e8",
      "transactionIndex": "0x3",
      "blockHash": "0x38b5cad95f9b6a205f2025a9ac9176fe8499cb8770586d93c92fb4acbc4b9c88",
      "blockNumber": "0x802f0a",
      "from": "0x1De380594dE7ABA6442D879713c86Ba7395abE7B",
      "to": "0x653d3CBa5fabc246946c0C393Ce89e862DADd3bf",
      "cumulativeGasUsed": "0x5ad70",
      "gasUsed": "0x16c1a",
      "contractAddress": null,
      "logs": [],
      "status": "0x1",
      "logsBloom": "0x00000000000000000000000000000000000000000000000000000000000000000000000000000000000000000000000000000000000000000000000000000000000000000000000000000000000000000000000000000000000000000000000000000000000000000000000000000000000000000000000000000000000000000000000000000000000000000000000000000000000000000000000000000000000000000000000000000000000000000000000000000000000000000000000000000000000000000000000000000000000000000000000000000000000000000000000000000000000000000000000000000000000000000000000000000000",
      "type": "0x0",
      "effectiveGasPrice": "0x59682f64"
    },
    {
      "transactionHash": "0x66f0fa75d21cb6ecd9932adb967140806f4ee980a00e4bc1eab9c665035c6a3c",
      "transactionIndex": "0x1",
      "blockHash": "0x4b1c297988240de0c9ea173f7620f8db7ffbd693057b3b1049fa157a89dca7da",
      "blockNumber": "0x802f0e",
      "from": "0x1De380594dE7ABA6442D879713c86Ba7395abE7B",
      "to": "0x653d3CBa5fabc246946c0C393Ce89e862DADd3bf",
      "cumulativeGasUsed": "0x26633",
      "gasUsed": "0x16c56",
      "contractAddress": null,
      "logs": [],
      "status": "0x1",
      "logsBloom": "0x00000000000000000000000000000000000000000000000000000000000000000000000000000000000000000000000000000000000000000000000000000000000000000000000000000000000000000000000000000000000000000000000000000000000000000000000000000000000000000000000000000000000000000000000000000000000000000000000000000000000000000000000000000000000000000000000000000000000000000000000000000000000000000000000000000000000000000000000000000000000000000000000000000000000000000000000000000000000000000000000000000000000000000000000000000000",
      "type": "0x0",
      "effectiveGasPrice": "0x59682f64"
    },
    {
      "transactionHash": "0x5117e95b8f228877ba70fa08a415f16689df09b614466555bafef15d289dd750",
      "transactionIndex": "0x1",
      "blockHash": "0xc6966547ccae4bed857e50cd556d725dcc85bab67420738faf42166ff8e2dcaa",
      "blockNumber": "0x802f12",
      "from": "0x1De380594dE7ABA6442D879713c86Ba7395abE7B",
      "to": "0x653d3CBa5fabc246946c0C393Ce89e862DADd3bf",
      "cumulativeGasUsed": "0x2231f",
      "gasUsed": "0x16c0e",
      "contractAddress": null,
      "logs": [],
      "status": "0x1",
      "logsBloom": "0x00000000000000000000000000000000000000000000000000000000000000000000000000000000000000000000000000000000000000000000000000000000000000000000000000000000000000000000000000000000000000000000000000000000000000000000000000000000000000000000000000000000000000000000000000000000000000000000000000000000000000000000000000000000000000000000000000000000000000000000000000000000000000000000000000000000000000000000000000000000000000000000000000000000000000000000000000000000000000000000000000000000000000000000000000000000",
      "type": "0x0",
      "effectiveGasPrice": "0x59682f64"
    },
    {
      "transactionHash": "0xed18dcb732a2b083ec01d1a96a7ecd0a1e338e4cf1560a437c21c03e9ade6cb0",
      "transactionIndex": "0x1",
      "blockHash": "0x0090c56172366266634ee079ac59b332b6cebc0c5edf35acd2f58a6aa805955c",
      "blockNumber": "0x802f15",
      "from": "0x1De380594dE7ABA6442D879713c86Ba7395abE7B",
      "to": "0x653d3CBa5fabc246946c0C393Ce89e862DADd3bf",
      "cumulativeGasUsed": "0x22307",
      "gasUsed": "0x16bf6",
      "contractAddress": null,
      "logs": [],
      "status": "0x1",
      "logsBloom": "0x00000000000000000000000000000000000000000000000000000000000000000000000000000000000000000000000000000000000000000000000000000000000000000000000000000000000000000000000000000000000000000000000000000000000000000000000000000000000000000000000000000000000000000000000000000000000000000000000000000000000000000000000000000000000000000000000000000000000000000000000000000000000000000000000000000000000000000000000000000000000000000000000000000000000000000000000000000000000000000000000000000000000000000000000000000000",
      "type": "0x0",
      "effectiveGasPrice": "0x59682f64"
    },
    {
      "transactionHash": "0xe6a5267ecc7cb11b75d05fc357258e5c1b42b88138968e5c090325944fddcca7",
      "transactionIndex": "0x1",
      "blockHash": "0x5084eb367b146b20b7ed53bff8ade3a6d5a7d5098a01e8e102e93e1ef11e356a",
      "blockNumber": "0x802f19",
      "from": "0x1De380594dE7ABA6442D879713c86Ba7395abE7B",
      "to": "0x653d3CBa5fabc246946c0C393Ce89e862DADd3bf",
      "cumulativeGasUsed": "0x223af",
      "gasUsed": "0x16c9e",
      "contractAddress": null,
      "logs": [],
      "status": "0x1",
      "logsBloom": "0x00000000000000000000000000000000000000000000000000000000000000000000000000000000000000000000000000000000000000000000000000000000000000000000000000000000000000000000000000000000000000000000000000000000000000000000000000000000000000000000000000000000000000000000000000000000000000000000000000000000000000000000000000000000000000000000000000000000000000000000000000000000000000000000000000000000000000000000000000000000000000000000000000000000000000000000000000000000000000000000000000000000000000000000000000000000",
      "type": "0x0",
      "effectiveGasPrice": "0x59682f64"
    },
    {
      "transactionHash": "0x63d8103ea694398b8c6cd7e98f588601b09a246a30adcda83a31de5055caca25",
      "transactionIndex": "0x1",
      "blockHash": "0x0001a9286b719f2379ce86528d8b8e2be58cd4ad0d833a6424c2f9bd23ec05a6",
      "blockNumber": "0x802f1d",
      "from": "0x1De380594dE7ABA6442D879713c86Ba7395abE7B",
      "to": "0x653d3CBa5fabc246946c0C393Ce89e862DADd3bf",
      "cumulativeGasUsed": "0x2237f",
      "gasUsed": "0x16c6e",
      "contractAddress": null,
      "logs": [],
      "status": "0x1",
      "logsBloom": "0x00000000000000000000000000000000000000000000000000000000000000000000000000000000000000000000000000000000000000000000000000000000000000000000000000000000000000000000000000000000000000000000000000000000000000000000000000000000000000000000000000000000000000000000000000000000000000000000000000000000000000000000000000000000000000000000000000000000000000000000000000000000000000000000000000000000000000000000000000000000000000000000000000000000000000000000000000000000000000000000000000000000000000000000000000000000",
      "type": "0x0",
      "effectiveGasPrice": "0x59682f64"
    },
    {
      "transactionHash": "0x53eee995531d46fbe12fb566696c817e43faf441128764e29dca3aeb8fe9b760",
      "transactionIndex": "0x2",
      "blockHash": "0x3ab6fd941361035873a6898643d667d9e1097a1ed2db873584842c3f20002df4",
      "blockNumber": "0x802f20",
      "from": "0x1De380594dE7ABA6442D879713c86Ba7395abE7B",
      "to": "0x653d3CBa5fabc246946c0C393Ce89e862DADd3bf",
      "cumulativeGasUsed": "0x41678",
      "gasUsed": "0x16cb6",
      "contractAddress": null,
      "logs": [],
      "status": "0x1",
      "logsBloom": "0x00000000000000000000000000000000000000000000000000000000000000000000000000000000000000000000000000000000000000000000000000000000000000000000000000000000000000000000000000000000000000000000000000000000000000000000000000000000000000000000000000000000000000000000000000000000000000000000000000000000000000000000000000000000000000000000000000000000000000000000000000000000000000000000000000000000000000000000000000000000000000000000000000000000000000000000000000000000000000000000000000000000000000000000000000000000",
      "type": "0x0",
      "effectiveGasPrice": "0x59682f64"
    },
    {
      "transactionHash": "0x73cc2b63c5128faa61e7e64dcadf9d1d89f6436aac1d4e136f439d721c7ed7ef",
      "transactionIndex": "0x3",
      "blockHash": "0x5ff0f3858c2fe2314040a7d0c730572a6ec3593878e642010150c9f589861037",
      "blockNumber": "0x802f24",
      "from": "0x1De380594dE7ABA6442D879713c86Ba7395abE7B",
      "to": "0x653d3CBa5fabc246946c0C393Ce89e862DADd3bf",
      "cumulativeGasUsed": "0x5fee3",
      "gasUsed": "0x16d16",
      "contractAddress": null,
      "logs": [],
      "status": "0x1",
      "logsBloom": "0x00000000000000000000000000000000000000000000000000000000000000000000000000000000000000000000000000000000000000000000000000000000000000000000000000000000000000000000000000000000000000000000000000000000000000000000000000000000000000000000000000000000000000000000000000000000000000000000000000000000000000000000000000000000000000000000000000000000000000000000000000000000000000000000000000000000000000000000000000000000000000000000000000000000000000000000000000000000000000000000000000000000000000000000000000000000",
      "type": "0x0",
      "effectiveGasPrice": "0x59682f64"
    },
    {
      "transactionHash": "0xa1815d29c45c883e5ac4484f9e24bdec105e70ac32878ca259822308efc404c9",
      "transactionIndex": "0x1",
      "blockHash": "0xff501c24007b856ebf2941e3f93ba88ac1bb0efc6cab1445193a70610286d3c4",
      "blockNumber": "0x802f28",
      "from": "0x1De380594dE7ABA6442D879713c86Ba7395abE7B",
      "to": "0x653d3CBa5fabc246946c0C393Ce89e862DADd3bf",
      "cumulativeGasUsed": "0x223c7",
      "gasUsed": "0x16cb6",
      "contractAddress": null,
      "logs": [],
      "status": "0x1",
      "logsBloom": "0x00000000000000000000000000000000000000000000000000000000000000000000000000000000000000000000000000000000000000000000000000000000000000000000000000000000000000000000000000000000000000000000000000000000000000000000000000000000000000000000000000000000000000000000000000000000000000000000000000000000000000000000000000000000000000000000000000000000000000000000000000000000000000000000000000000000000000000000000000000000000000000000000000000000000000000000000000000000000000000000000000000000000000000000000000000000",
      "type": "0x0",
      "effectiveGasPrice": "0x59682f64"
    }
  ],
  "libraries": [],
  "pending": [],
  "path": "/home/ser-orphan/Workspace/DecentrAgora/dAgora Products/Contracts/Impact Cards/broadcast/Deploy.s.sol/420/run-latest.json",
  "returns": {},
  "timestamp": 1682229448,
  "chain": 420,
  "multi": false,
  "commit": "bf1b3fc"
}